{
  "_format": "hh3-artifact-1",
  "contractName": "PlayFiVault",
  "sourceName": "contracts/PlayFiVault.sol",
  "abi": [
    {
      "inputs": [],
      "stateMutability": "nonpayable",
      "type": "constructor"
    },
    {
      "anonymous": false,
      "inputs": [
        {
          "indexed": true,
          "internalType": "address",
          "name": "user",
          "type": "address"
        },
        {
          "indexed": false,
          "internalType": "uint256",
          "name": "amount",
          "type": "uint256"
        }
      ],
      "name": "BetPlaced",
      "type": "event"
    },
    {
      "anonymous": false,
      "inputs": [
        {
          "indexed": true,
          "internalType": "address",
          "name": "user",
          "type": "address"
        },
        {
          "indexed": false,
          "internalType": "uint256",
          "name": "amount",
          "type": "uint256"
        }
      ],
      "name": "Deposited",
      "type": "event"
    },
    {
      "anonymous": false,
      "inputs": [
        {
          "indexed": true,
          "internalType": "address",
          "name": "user",
          "type": "address"
        },
        {
          "indexed": false,
          "internalType": "uint256",
          "name": "won",
          "type": "uint256"
        },
        {
          "indexed": false,
          "internalType": "uint256",
          "name": "lost",
          "type": "uint256"
        }
      ],
      "name": "GameResult",
      "type": "event"
    },
    {
      "anonymous": false,
      "inputs": [
        {
          "indexed": false,
          "internalType": "uint256",
          "name": "amount",
          "type": "uint256"
        }
      ],
      "name": "HouseFunded",
      "type": "event"
    },
    {
      "anonymous": false,
      "inputs": [
        {
          "indexed": false,
          "internalType": "uint256",
          "name": "amount",
          "type": "uint256"
        }
      ],
      "name": "HouseWithdrawn",
      "type": "event"
    },
    {
      "anonymous": false,
      "inputs": [
        {
          "indexed": true,
          "internalType": "address",
          "name": "previousOwner",
          "type": "address"
        },
        {
          "indexed": true,
          "internalType": "address",
          "name": "newOwner",
          "type": "address"
        }
      ],
      "name": "OwnershipTransferred",
      "type": "event"
    },
    {
      "anonymous": false,
      "inputs": [
        {
          "indexed": true,
          "internalType": "address",
          "name": "user",
          "type": "address"
        },
        {
          "indexed": false,
          "internalType": "uint256",
          "name": "amount",
          "type": "uint256"
        }
      ],
      "name": "Withdrawn",
      "type": "event"
    },
    {
      "inputs": [
        {
          "internalType": "address",
          "name": "",
          "type": "address"
        }
      ],
      "name": "authorizedGames",
      "outputs": [
        {
          "internalType": "bool",
          "name": "",
          "type": "bool"
        }
      ],
      "stateMutability": "view",
      "type": "function"
    },
    {
      "inputs": [],
      "name": "deposit",
      "outputs": [],
      "stateMutability": "payable",
      "type": "function"
    },
    {
      "inputs": [],
      "name": "fundHouse",
      "outputs": [],
      "stateMutability": "payable",
      "type": "function"
    },
    {
      "inputs": [],
      "name": "getVaultBalance",
      "outputs": [
        {
          "internalType": "uint256",
          "name": "",
          "type": "uint256"
        }
      ],
      "stateMutability": "view",
      "type": "function"
    },
    {
      "inputs": [],
      "name": "houseLiquidity",
      "outputs": [
        {
          "internalType": "uint256",
          "name": "",
          "type": "uint256"
        }
      ],
      "stateMutability": "view",
      "type": "function"
    },
    {
      "inputs": [],
      "name": "owner",
      "outputs": [
        {
          "internalType": "address",
          "name": "",
          "type": "address"
        }
      ],
      "stateMutability": "view",
      "type": "function"
    },
    {
      "inputs": [],
      "name": "placeBet",
      "outputs": [],
      "stateMutability": "payable",
      "type": "function"
    },
    {
      "inputs": [
        {
          "internalType": "address",
          "name": "gameContract",
          "type": "address"
        },
        {
          "internalType": "bool",
          "name": "status",
          "type": "bool"
        }
      ],
      "name": "setGameAuthorization",
      "outputs": [],
      "stateMutability": "nonpayable",
      "type": "function"
    },
    {
      "inputs": [
        {
          "internalType": "address",
          "name": "user",
          "type": "address"
        },
        {
          "internalType": "uint256",
          "name": "winAmount",
          "type": "uint256"
        },
        {
          "internalType": "uint256",
          "name": "lossAmount",
          "type": "uint256"
        }
      ],
      "name": "settleGame",
      "outputs": [],
      "stateMutability": "nonpayable",
      "type": "function"
    },
    {
      "inputs": [
        {
          "internalType": "address",
          "name": "user",
          "type": "address"
        },
        {
          "internalType": "uint256",
          "name": "winAmount",
          "type": "uint256"
        }
      ],
      "name": "settleGame",
      "outputs": [],
      "stateMutability": "nonpayable",
      "type": "function"
    },
    {
      "inputs": [
        {
          "internalType": "address",
          "name": "newOwner",
          "type": "address"
        }
      ],
      "name": "transferOwnership",
      "outputs": [],
      "stateMutability": "nonpayable",
      "type": "function"
    },
    {
      "inputs": [
        {
          "internalType": "address",
          "name": "",
          "type": "address"
        }
      ],
      "name": "userBalances",
      "outputs": [
        {
          "internalType": "uint256",
          "name": "",
          "type": "uint256"
        }
      ],
      "stateMutability": "view",
      "type": "function"
    },
    {
      "inputs": [
        {
          "internalType": "uint256",
          "name": "amount",
          "type": "uint256"
        }
      ],
      "name": "withdraw",
      "outputs": [],
      "stateMutability": "nonpayable",
      "type": "function"
    },
    {
      "inputs": [
        {
          "internalType": "uint256",
          "name": "amount",
          "type": "uint256"
        }
      ],
      "name": "withdrawHouse",
      "outputs": [],
      "stateMutability": "nonpayable",
      "type": "function"
    }
  ],
  "bytecode": "0x608060405234801561000f575f80fd5b505f80546001600160a01b03191633179055610f3f8061002e5f395ff3fe6080604052600436106100d9575f3560e01c80639e492b991161007c578063ed12e8ef11610057578063ed12e8ef14610232578063efd1817014610244578063f2fde38b14610263578063f90f456014610282575f80fd5b80639e492b99146101cd578063c93037381461020b578063d0e30db01461022a575f80fd5b80633f92b562116100b75780633f92b5621461015b5780636afbb01b1461017a5780638030f669146101825780638da5cb5b14610197575f80fd5b806323218411146100dd57806326224c64146100fe5780632e1a7d4d1461013c575b5f80fd5b3480156100e8575f80fd5b506100fc6100f7366004610cf9565b61028a565b005b348015610109575f80fd5b50610129610118366004610d2b565b60016020525f908152604090205481565b6040519081526020015b60405180910390f35b348015610147575f80fd5b506100fc610156366004610cf9565b610441565b348015610166575f80fd5b506100fc610175366004610d4b565b6105ff565b6100fc610869565b34801561018d575f80fd5b5061012960025481565b3480156101a2575f80fd5b505f546101b5906001600160a01b031681565b6040516001600160a01b039091168152602001610133565b3480156101d8575f80fd5b506101fb6101e7366004610d2b565b60046020525f908152604090205460ff1681565b6040519015158152602001610133565b348015610216575f80fd5b506100fc610225366004610d7b565b6108dd565b6100fc610930565b34801561023d575f80fd5b5047610129565b34801561024f575f80fd5b506100fc61025e366004610db4565b6109f0565b34801561026e575f80fd5b506100fc61027d366004610d2b565b610b79565b6100fc610c50565b5f546001600160a01b031633146102bc5760405162461bcd60e51b81526004016102b390610ddc565b60405180910390fd5b60035460ff16156102df5760405162461bcd60e51b81526004016102b390610e13565b6003805460ff1916600117905560025481111561034a5760405162461bcd60e51b8152602060048201526024808201527f506c617946693a20496e73756666696369656e7420686f757365206c697175696044820152636469747960e01b60648201526084016102b3565b8060025f82825461035b9190610e57565b90915550505f80546040516001600160a01b039091169083908381818185875af1925050503d805f81146103aa576040519150601f19603f3d011682016040523d82523d5f602084013e6103af565b606091505b50509050806104005760405162461bcd60e51b815260206004820152601d60248201527f506c617946693a20486f757365207472616e73666572206661696c656400000060448201526064016102b3565b6040518281527fd945ce854e54b4e7a87ddd5727e4dfd5c8e05df22e862ef99562e994c99158af9060200160405180910390a150506003805460ff19169055565b60035460ff16156104645760405162461bcd60e51b81526004016102b390610e13565b6003805460ff19166001179055806104d55760405162461bcd60e51b815260206004820152602e60248201527f506c617946693a20576974686472617720616d6f756e74206d7573742062652060448201526d067726561746572207468616e20360941b60648201526084016102b3565b335f908152600160205260409020548111156105335760405162461bcd60e51b815260206004820152601c60248201527f506c617946693a20496e73756666696369656e742062616c616e63650000000060448201526064016102b3565b335f9081526001602052604081208054839290610551908490610e57565b90915550506040515f90339083908381818185875af1925050503d805f8114610595576040519150601f19603f3d011682016040523d82523d5f602084013e61059a565b606091505b50509050806105bb5760405162461bcd60e51b81526004016102b390610e70565b60405182815233907f7084f5476618d8e60b11ef0d7d3f06914655adb8793e28ff7f018d4c76d505d5906020015b60405180910390a250506003805460ff19169055565b5f546001600160a01b03163314806106255750335f9081526004602052604090205460ff165b61066a5760405162461bcd60e51b8152602060048201526016602482015275141b185e519a4e88139bdd08185d5d1a1bdc9a5e995960521b60448201526064016102b3565b60035460ff161561068d5760405162461bcd60e51b81526004016102b390610e13565b6003805460ff191660011790558015610768576001600160a01b0383165f908152600160205260409020548111156107235760405162461bcd60e51b815260206004820152603360248201527f506c617946693a20557365722068617320696e73756666696369656e742062616044820152726c616e636520746f20636f766572206c6f737360681b60648201526084016102b3565b6001600160a01b0383165f908152600160205260408120805483929061074a908490610e57565b925050819055508060025f8282546107629190610ea7565b90915550505b8115610816578160025410156107905760405162461bcd60e51b81526004016102b390610eba565b8160025f8282546107a19190610e57565b90915550506040515f906001600160a01b0385169084908381818185875af1925050503d805f81146107ee576040519150601f19603f3d011682016040523d82523d5f602084013e6107f3565b606091505b50509050806108145760405162461bcd60e51b81526004016102b390610e70565b505b60408051838152602081018390526001600160a01b038516917f761bbf8ad882003774e8650d36faa00fdea1a75836949dfb7eb6ac36fe29505c910160405180910390a250506003805460ff1916905550565b5f546001600160a01b031633146108925760405162461bcd60e51b81526004016102b390610ddc565b3460025f8282546108a39190610ea7565b90915550506040513481527f73deb9e7af4f8bf96cc7c418c08e939dac5b9dcfde84519e70ca1ce08b9974189060200160405180910390a1565b5f546001600160a01b031633146109065760405162461bcd60e51b81526004016102b390610ddc565b6001600160a01b03919091165f908152600460205260409020805460ff1916911515919091179055565b5f34116109955760405162461bcd60e51b815260206004820152602d60248201527f506c617946693a204465706f73697420616d6f756e74206d757374206265206760448201526c0726561746572207468616e203609c1b60648201526084016102b3565b335f90815260016020526040812080543492906109b3908490610ea7565b909155505060405134815233907f2da466a7b24304f47e87fa2e1e5a81b9831ce54fec19055ce277ca2f39ba42c4906020015b60405180910390a2565b5f546001600160a01b0316331480610a165750335f9081526004602052604090205460ff165b610a5b5760405162461bcd60e51b8152602060048201526016602482015275141b185e519a4e88139bdd08185d5d1a1bdc9a5e995960521b60448201526064016102b3565b60035460ff1615610a7e5760405162461bcd60e51b81526004016102b390610e13565b6003805460ff191660011790558015610b3957806002541015610ab35760405162461bcd60e51b81526004016102b390610eba565b8060025f828254610ac49190610e57565b90915550506040515f906001600160a01b0384169083908381818185875af1925050503d805f8114610b11576040519150601f19603f3d011682016040523d82523d5f602084013e610b16565b606091505b5050905080610b375760405162461bcd60e51b81526004016102b390610e70565b505b604080518281525f60208201526001600160a01b038416917f761bbf8ad882003774e8650d36faa00fdea1a75836949dfb7eb6ac36fe29505c91016105e9565b5f546001600160a01b03163314610ba25760405162461bcd60e51b81526004016102b390610ddc565b6001600160a01b038116610c065760405162461bcd60e51b815260206004820152602560248201527f506c617946693a204e6577206f776e657220697320746865207a65726f206164604482015264647265737360d81b60648201526084016102b3565b5f80546001600160a01b0319166001600160a01b0383169081178255604051909133917f8be0079c531659141344cd1fd0a4f28419497f9722a3daafe3b4186f6b6457e09190a350565b5f3411610cb15760405162461bcd60e51b815260206004820152602960248201527f506c617946693a2042657420616d6f756e74206d75737420626520677265617460448201526806572207468616e20360bc1b60648201526084016102b3565b3460025f828254610cc29190610ea7565b909155505060405134815233907f43e08d78302cdf9c94e1ffd293c2a3696139ee41cf3199b6f5eed9c7f6cc6090906020016109e6565b5f60208284031215610d09575f80fd5b5035919050565b80356001600160a01b0381168114610d26575f80fd5b919050565b5f60208284031215610d3b575f80fd5b610d4482610d10565b9392505050565b5f805f60608486031215610d5d575f80fd5b610d6684610d10565b95602085013595506040909401359392505050565b5f8060408385031215610d8c575f80fd5b610d9583610d10565b915060208301358015158114610da9575f80fd5b809150509250929050565b5f8060408385031215610dc5575f80fd5b610dce83610d10565b946020939093013593505050565b6020808252601f908201527f506c617946693a2043616c6c6572206973206e6f7420746865206f776e657200604082015260600190565b602080825260169082015275141b185e519a4e881499595b9d1c985b9d0818d85b1b60521b604082015260600190565b634e487b7160e01b5f52601160045260245ffd5b81810381811115610e6a57610e6a610e43565b92915050565b60208082526017908201527f506c617946693a205472616e73666572206661696c6564000000000000000000604082015260600190565b80820180821115610e6a57610e6a610e43565b6020808252602f908201527f506c617946693a20496e73756666696369656e7420686f757365206c6971756960408201526e191a5d1e48199bdc881c185e5bdd5d608a1b60608201526080019056fea2646970667358221220f306fcd9f06d5c1659a6d8964abb2ff74fb5a4b4a7e3f1ebc89160d3f7dcbfbe64736f6c63430008140033",
  "linkReferences": {},
  "deployedLinkReferences": {},
  "immutableReferences": {},
  "inputSourceName": "project/contracts/PlayFiVault.sol",
  "buildInfoId": "solc-0_8_20-716cba37d966ed315aa86d12225d9d789e7cff1e"
}