{
  "_format": "hh3-artifact-1",
  "contractName": "PlayFiVault",
  "sourceName": "contracts/PlayFiVault.sol",
  "abi": [
    {
      "inputs": [],
      "stateMutability": "nonpayable",
      "type": "constructor"
    },
    {
      "anonymous": false,
      "inputs": [
        {
          "indexed": true,
          "internalType": "address",
          "name": "user",
          "type": "address"
        },
        {
          "indexed": false,
          "internalType": "uint256",
          "name": "amount",
          "type": "uint256"
        }
      ],
      "name": "Deposited",
      "type": "event"
    },
    {
      "anonymous": false,
      "inputs": [
        {
          "indexed": true,
          "internalType": "address",
          "name": "user",
          "type": "address"
        },
        {
          "indexed": false,
          "internalType": "uint256",
          "name": "won",
          "type": "uint256"
        },
        {
          "indexed": false,
          "internalType": "uint256",
          "name": "lost",
          "type": "uint256"
        }
      ],
      "name": "GameResult",
      "type": "event"
    },
    {
      "anonymous": false,
      "inputs": [
        {
          "indexed": false,
          "internalType": "uint256",
          "name": "amount",
          "type": "uint256"
        }
      ],
      "name": "HouseFunded",
      "type": "event"
    },
    {
      "anonymous": false,
      "inputs": [
        {
          "indexed": false,
          "internalType": "uint256",
          "name": "amount",
          "type": "uint256"
        }
      ],
      "name": "HouseWithdrawn",
      "type": "event"
    },
    {
      "anonymous": false,
      "inputs": [
        {
          "indexed": true,
          "internalType": "address",
          "name": "user",
          "type": "address"
        },
        {
          "indexed": false,
          "internalType": "uint256",
          "name": "amount",
          "type": "uint256"
        }
      ],
      "name": "Withdrawn",
      "type": "event"
    },
    {
      "inputs": [
        {
          "internalType": "address",
          "name": "",
          "type": "address"
        }
      ],
      "name": "authorizedGames",
      "outputs": [
        {
          "internalType": "bool",
          "name": "",
          "type": "bool"
        }
      ],
      "stateMutability": "view",
      "type": "function"
    },
    {
      "inputs": [],
      "name": "deposit",
      "outputs": [],
      "stateMutability": "payable",
      "type": "function"
    },
    {
      "inputs": [],
      "name": "fundHouse",
      "outputs": [],
      "stateMutability": "payable",
      "type": "function"
    },
    {
      "inputs": [],
      "name": "getVaultBalance",
      "outputs": [
        {
          "internalType": "uint256",
          "name": "",
          "type": "uint256"
        }
      ],
      "stateMutability": "view",
      "type": "function"
    },
    {
      "inputs": [],
      "name": "houseLiquidity",
      "outputs": [
        {
          "internalType": "uint256",
          "name": "",
          "type": "uint256"
        }
      ],
      "stateMutability": "view",
      "type": "function"
    },
    {
      "inputs": [],
      "name": "owner",
      "outputs": [
        {
          "internalType": "address",
          "name": "",
          "type": "address"
        }
      ],
      "stateMutability": "view",
      "type": "function"
    },
    {
      "inputs": [
        {
          "internalType": "address",
          "name": "gameContract",
          "type": "address"
        },
        {
          "internalType": "bool",
          "name": "status",
          "type": "bool"
        }
      ],
      "name": "setGameAuthorization",
      "outputs": [],
      "stateMutability": "nonpayable",
      "type": "function"
    },
    {
      "inputs": [
        {
          "internalType": "address",
          "name": "user",
          "type": "address"
        },
        {
          "internalType": "uint256",
          "name": "winAmount",
          "type": "uint256"
        },
        {
          "internalType": "uint256",
          "name": "lossAmount",
          "type": "uint256"
        }
      ],
      "name": "settleGame",
      "outputs": [],
      "stateMutability": "nonpayable",
      "type": "function"
    },
    {
      "inputs": [
        {
          "internalType": "address",
          "name": "",
          "type": "address"
        }
      ],
      "name": "userBalances",
      "outputs": [
        {
          "internalType": "uint256",
          "name": "",
          "type": "uint256"
        }
      ],
      "stateMutability": "view",
      "type": "function"
    },
    {
      "inputs": [
        {
          "internalType": "uint256",
          "name": "amount",
          "type": "uint256"
        }
      ],
      "name": "withdraw",
      "outputs": [],
      "stateMutability": "nonpayable",
      "type": "function"
    },
    {
      "inputs": [
        {
          "internalType": "uint256",
          "name": "amount",
          "type": "uint256"
        }
      ],
      "name": "withdrawHouse",
      "outputs": [],
      "stateMutability": "nonpayable",
      "type": "function"
    }
  ],
  "bytecode": "0x608060405234801561000f575f80fd5b50335f806101000a81548173ffffffffffffffffffffffffffffffffffffffff021916908373ffffffffffffffffffffffffffffffffffffffff1602179055506114698061005c5f395ff3fe60806040526004361061009b575f3560e01c80638030f669116100635780638030f6691461015d5780638da5cb5b146101875780639e492b99146101b1578063c9303738146101ed578063d0e30db014610215578063ed12e8ef1461021f5761009b565b8063232184111461009f57806326224c64146100c75780632e1a7d4d146101035780633f92b5621461012b5780636afbb01b14610153575b5f80fd5b3480156100aa575f80fd5b506100c560048036038101906100c09190610c6f565b610249565b005b3480156100d2575f80fd5b506100ed60048036038101906100e89190610cf4565b610479565b6040516100fa9190610d2e565b60405180910390f35b34801561010e575f80fd5b5061012960048036038101906101249190610c6f565b61048e565b005b348015610136575f80fd5b50610151600480360381019061014c9190610d47565b61065b565b005b61015b610943565b005b348015610168575f80fd5b50610171610a21565b60405161017e9190610d2e565b60405180910390f35b348015610192575f80fd5b5061019b610a27565b6040516101a89190610da6565b60405180910390f35b3480156101bc575f80fd5b506101d760048036038101906101d29190610cf4565b610a4a565b6040516101e49190610dd9565b60405180910390f35b3480156101f8575f80fd5b50610213600480360381019061020e9190610e1c565b610a67565b005b61021d610b4c565b005b34801561022a575f80fd5b50610233610c31565b6040516102409190610d2e565b60405180910390f35b5f8054906101000a900473ffffffffffffffffffffffffffffffffffffffff1673ffffffffffffffffffffffffffffffffffffffff163373ffffffffffffffffffffffffffffffffffffffff16146102d6576040517f08c379a00000000000000000000000000000000000000000000000000000000081526004016102cd90610eb4565b60405180910390fd5b80471015610319576040517f08c379a000000000000000000000000000000000000000000000000000000000815260040161031090610f42565b60405180910390fd5b80600254101561035e576040517f08c379a000000000000000000000000000000000000000000000000000000000815260040161035590610fd0565b60405180910390fd5b8060025f82825461036f919061101b565b925050819055505f805f9054906101000a900473ffffffffffffffffffffffffffffffffffffffff1673ffffffffffffffffffffffffffffffffffffffff16826040516103bb9061107b565b5f6040518083038185875af1925050503d805f81146103f5576040519150601f19603f3d011682016040523d82523d5f602084013e6103fa565b606091505b505090508061043e576040517f08c379a0000000000000000000000000000000000000000000000000000000008152600401610435906110d9565b60405180910390fd5b7fd945ce854e54b4e7a87ddd5727e4dfd5c8e05df22e862ef99562e994c99158af8260405161046d9190610d2e565b60405180910390a15050565b6001602052805f5260405f205f915090505481565b8060015f3373ffffffffffffffffffffffffffffffffffffffff1673ffffffffffffffffffffffffffffffffffffffff1681526020019081526020015f2054101561050e576040517f08c379a000000000000000000000000000000000000000000000000000000000815260040161050590611141565b60405180910390fd5b8060015f3373ffffffffffffffffffffffffffffffffffffffff1673ffffffffffffffffffffffffffffffffffffffff1681526020019081526020015f205f82825461055a919061101b565b925050819055505f3373ffffffffffffffffffffffffffffffffffffffff16826040516105869061107b565b5f6040518083038185875af1925050503d805f81146105c0576040519150601f19603f3d011682016040523d82523d5f602084013e6105c5565b606091505b5050905080610609576040517f08c379a0000000000000000000000000000000000000000000000000000000008152600401610600906111a9565b60405180910390fd5b3373ffffffffffffffffffffffffffffffffffffffff167f7084f5476618d8e60b11ef0d7d3f06914655adb8793e28ff7f018d4c76d505d58360405161064f9190610d2e565b60405180910390a25050565b5f8054906101000a900473ffffffffffffffffffffffffffffffffffffffff1673ffffffffffffffffffffffffffffffffffffffff163373ffffffffffffffffffffffffffffffffffffffff1614806106fa575060035f3373ffffffffffffffffffffffffffffffffffffffff1673ffffffffffffffffffffffffffffffffffffffff1681526020019081526020015f205f9054906101000a900460ff165b610739576040517f08c379a000000000000000000000000000000000000000000000000000000000815260040161073090611211565b60405180910390fd5b5f81111561082d578060015f8573ffffffffffffffffffffffffffffffffffffffff1673ffffffffffffffffffffffffffffffffffffffff1681526020019081526020015f205410156107c1576040517f08c379a00000000000000000000000000000000000000000000000000000000081526004016107b89061129f565b60405180910390fd5b8060015f8573ffffffffffffffffffffffffffffffffffffffff1673ffffffffffffffffffffffffffffffffffffffff1681526020019081526020015f205f82825461080d919061101b565b925050819055508060025f82825461082591906112bd565b925050819055505b5f8211156108ee5781471015610878576040517f08c379a000000000000000000000000000000000000000000000000000000000815260040161086f90611360565b60405180910390fd5b8160015f8573ffffffffffffffffffffffffffffffffffffffff1673ffffffffffffffffffffffffffffffffffffffff1681526020019081526020015f205f8282546108c491906112bd565b9250508190555081600254106108ed578160025f8282546108e5919061101b565b925050819055505b5b8273ffffffffffffffffffffffffffffffffffffffff167f761bbf8ad882003774e8650d36faa00fdea1a75836949dfb7eb6ac36fe29505c838360405161093692919061137e565b60405180910390a2505050565b5f8054906101000a900473ffffffffffffffffffffffffffffffffffffffff1673ffffffffffffffffffffffffffffffffffffffff163373ffffffffffffffffffffffffffffffffffffffff16146109d0576040517f08c379a00000000000000000000000000000000000000000000000000000000081526004016109c790610eb4565b60405180910390fd5b3460025f8282546109e191906112bd565b925050819055507f73deb9e7af4f8bf96cc7c418c08e939dac5b9dcfde84519e70ca1ce08b99741834604051610a179190610d2e565b60405180910390a1565b60025481565b5f8054906101000a900473ffffffffffffffffffffffffffffffffffffffff1681565b6003602052805f5260405f205f915054906101000a900460ff1681565b5f8054906101000a900473ffffffffffffffffffffffffffffffffffffffff1673ffffffffffffffffffffffffffffffffffffffff163373ffffffffffffffffffffffffffffffffffffffff1614610af4576040517f08c379a0000000000000000000000000000000000000000000000000000000008152600401610aeb90610eb4565b60405180910390fd5b8060035f8473ffffffffffffffffffffffffffffffffffffffff1673ffffffffffffffffffffffffffffffffffffffff1681526020019081526020015f205f6101000a81548160ff0219169083151502179055505050565b5f3411610b8e576040517f08c379a0000000000000000000000000000000000000000000000000000000008152600401610b8590611415565b60405180910390fd5b3460015f3373ffffffffffffffffffffffffffffffffffffffff1673ffffffffffffffffffffffffffffffffffffffff1681526020019081526020015f205f828254610bda91906112bd565b925050819055503373ffffffffffffffffffffffffffffffffffffffff167f2da466a7b24304f47e87fa2e1e5a81b9831ce54fec19055ce277ca2f39ba42c434604051610c279190610d2e565b60405180910390a2565b5f47905090565b5f80fd5b5f819050919050565b610c4e81610c3c565b8114610c58575f80fd5b50565b5f81359050610c6981610c45565b92915050565b5f60208284031215610c8457610c83610c38565b5b5f610c9184828501610c5b565b91505092915050565b5f73ffffffffffffffffffffffffffffffffffffffff82169050919050565b5f610cc382610c9a565b9050919050565b610cd381610cb9565b8114610cdd575f80fd5b50565b5f81359050610cee81610cca565b92915050565b5f60208284031215610d0957610d08610c38565b5b5f610d1684828501610ce0565b91505092915050565b610d2881610c3c565b82525050565b5f602082019050610d415f830184610d1f565b92915050565b5f805f60608486031215610d5e57610d5d610c38565b5b5f610d6b86828701610ce0565b9350506020610d7c86828701610c5b565b9250506040610d8d86828701610c5b565b9150509250925092565b610da081610cb9565b82525050565b5f602082019050610db95f830184610d97565b92915050565b5f8115159050919050565b610dd381610dbf565b82525050565b5f602082019050610dec5f830184610dca565b92915050565b610dfb81610dbf565b8114610e05575f80fd5b50565b5f81359050610e1681610df2565b92915050565b5f8060408385031215610e3257610e31610c38565b5b5f610e3f85828601610ce0565b9250506020610e5085828601610e08565b9150509250929050565b5f82825260208201905092915050565b7f506c617946693a2043616c6c6572206973206e6f7420746865206f776e6572005f82015250565b5f610e9e601f83610e5a565b9150610ea982610e6a565b602082019050919050565b5f6020820190508181035f830152610ecb81610e92565b9050919050565b7f506c617946693a20496e73756666696369656e74207661756c742062616c616e5f8201527f6365000000000000000000000000000000000000000000000000000000000000602082015250565b5f610f2c602283610e5a565b9150610f3782610ed2565b604082019050919050565b5f6020820190508181035f830152610f5981610f20565b9050919050565b7f506c617946693a20496e73756666696369656e7420686f757365206c697175695f8201527f6469747900000000000000000000000000000000000000000000000000000000602082015250565b5f610fba602483610e5a565b9150610fc582610f60565b604082019050919050565b5f6020820190508181035f830152610fe781610fae565b9050919050565b7f4e487b71000000000000000000000000000000000000000000000000000000005f52601160045260245ffd5b5f61102582610c3c565b915061103083610c3c565b925082820390508181111561104857611047610fee565b5b92915050565b5f81905092915050565b50565b5f6110665f8361104e565b915061107182611058565b5f82019050919050565b5f6110858261105b565b9150819050919050565b7f506c617946693a20486f757365207472616e73666572206661696c65640000005f82015250565b5f6110c3601d83610e5a565b91506110ce8261108f565b602082019050919050565b5f6020820190508181035f8301526110f0816110b7565b9050919050565b7f506c617946693a20496e73756666696369656e742062616c616e6365000000005f82015250565b5f61112b601c83610e5a565b9150611136826110f7565b602082019050919050565b5f6020820190508181035f8301526111588161111f565b9050919050565b7f506c617946693a205472616e73666572206661696c65640000000000000000005f82015250565b5f611193601783610e5a565b915061119e8261115f565b602082019050919050565b5f6020820190508181035f8301526111c081611187565b9050919050565b7f506c617946693a204e6f7420617574686f72697a6564000000000000000000005f82015250565b5f6111fb601683610e5a565b9150611206826111c7565b602082019050919050565b5f6020820190508181035f830152611228816111ef565b9050919050565b7f506c617946693a20557365722068617320696e73756666696369656e742062615f8201527f6c616e636520746f20636f766572206c6f737300000000000000000000000000602082015250565b5f611289603383610e5a565b91506112948261122f565b604082019050919050565b5f6020820190508181035f8301526112b68161127d565b9050919050565b5f6112c782610c3c565b91506112d283610c3c565b92508282019050808211156112ea576112e9610fee565b5b92915050565b7f506c617946693a205661756c742068617320696e73756666696369656e74206c5f8201527f697175696469747920666f72207061796f757400000000000000000000000000602082015250565b5f61134a603383610e5a565b9150611355826112f0565b604082019050919050565b5f6020820190508181035f8301526113778161133e565b9050919050565b5f6040820190506113915f830185610d1f565b61139e6020830184610d1f565b9392505050565b7f506c617946693a204465706f73697420616d6f756e74206d75737420626520675f8201527f726561746572207468616e203000000000000000000000000000000000000000602082015250565b5f6113ff602d83610e5a565b915061140a826113a5565b604082019050919050565b5f6020820190508181035f83015261142c816113f3565b905091905056fea2646970667358221220505bb8f351896e0a5274bd238687a3c031e10ed8aaf43b7c007c37e2c817112764736f6c63430008140033",
  "linkReferences": {},
  "deployedLinkReferences": {},
  "immutableReferences": {},
  "inputSourceName": "project/contracts/PlayFiVault.sol",
  "buildInfoId": "solc-0_8_20-716cba37d966ed315aa86d12225d9d789e7cff1e"
}