{
  "_format": "hh-sol-artifact-1",
  "contractName": "PlayFiVault",
  "sourceName": "contracts/PlayFiVault.sol",
  "abi": [
    {
      "inputs": [
        {
          "internalType": "address",
          "name": "_playToken",
          "type": "address"
        }
      ],
      "stateMutability": "nonpayable",
      "type": "constructor"
    },
    {
      "inputs": [
        {
          "internalType": "address",
          "name": "owner",
          "type": "address"
        }
      ],
      "name": "OwnableInvalidOwner",
      "type": "error"
    },
    {
      "inputs": [
        {
          "internalType": "address",
          "name": "account",
          "type": "address"
        }
      ],
      "name": "OwnableUnauthorizedAccount",
      "type": "error"
    },
    {
      "anonymous": false,
      "inputs": [
        {
          "indexed": true,
          "internalType": "address",
          "name": "user",
          "type": "address"
        },
        {
          "indexed": false,
          "internalType": "uint256",
          "name": "amount",
          "type": "uint256"
        }
      ],
      "name": "Deposited",
      "type": "event"
    },
    {
      "anonymous": false,
      "inputs": [
        {
          "indexed": true,
          "internalType": "address",
          "name": "previousOwner",
          "type": "address"
        },
        {
          "indexed": true,
          "internalType": "address",
          "name": "newOwner",
          "type": "address"
        }
      ],
      "name": "OwnershipTransferred",
      "type": "event"
    },
    {
      "anonymous": false,
      "inputs": [
        {
          "indexed": true,
          "internalType": "address",
          "name": "user",
          "type": "address"
        },
        {
          "indexed": false,
          "internalType": "uint256",
          "name": "amount",
          "type": "uint256"
        }
      ],
      "name": "Withdrawn",
      "type": "event"
    },
    {
      "anonymous": false,
      "inputs": [
        {
          "indexed": true,
          "internalType": "address",
          "name": "user",
          "type": "address"
        },
        {
          "indexed": false,
          "internalType": "uint256",
          "name": "yield",
          "type": "uint256"
        }
      ],
      "name": "YieldClaimed",
      "type": "event"
    },
    {
      "inputs": [
        {
          "internalType": "uint256",
          "name": "amount",
          "type": "uint256"
        }
      ],
      "name": "adminWithdrawHbar",
      "outputs": [],
      "stateMutability": "nonpayable",
      "type": "function"
    },
    {
      "inputs": [
        {
          "internalType": "uint256",
          "name": "amount",
          "type": "uint256"
        }
      ],
      "name": "adminWithdrawPlay",
      "outputs": [],
      "stateMutability": "nonpayable",
      "type": "function"
    },
    {
      "inputs": [
        {
          "internalType": "address",
          "name": "_token",
          "type": "address"
        }
      ],
      "name": "associateVault",
      "outputs": [],
      "stateMutability": "nonpayable",
      "type": "function"
    },
    {
      "inputs": [
        {
          "internalType": "address",
          "name": "user",
          "type": "address"
        }
      ],
      "name": "balances",
      "outputs": [
        {
          "internalType": "uint256",
          "name": "",
          "type": "uint256"
        }
      ],
      "stateMutability": "view",
      "type": "function"
    },
    {
      "inputs": [
        {
          "internalType": "address",
          "name": "user",
          "type": "address"
        }
      ],
      "name": "calculateYield",
      "outputs": [
        {
          "internalType": "uint256",
          "name": "",
          "type": "uint256"
        }
      ],
      "stateMutability": "view",
      "type": "function"
    },
    {
      "inputs": [],
      "name": "claimYield",
      "outputs": [],
      "stateMutability": "nonpayable",
      "type": "function"
    },
    {
      "inputs": [],
      "name": "deposit",
      "outputs": [],
      "stateMutability": "payable",
      "type": "function"
    },
    {
      "inputs": [],
      "name": "owner",
      "outputs": [
        {
          "internalType": "address",
          "name": "",
          "type": "address"
        }
      ],
      "stateMutability": "view",
      "type": "function"
    },
    {
      "inputs": [],
      "name": "playToken",
      "outputs": [
        {
          "internalType": "contract IERC20",
          "name": "",
          "type": "address"
        }
      ],
      "stateMutability": "view",
      "type": "function"
    },
    {
      "inputs": [],
      "name": "renounceOwnership",
      "outputs": [],
      "stateMutability": "nonpayable",
      "type": "function"
    },
    {
      "inputs": [],
      "name": "rewardRatePerSecond",
      "outputs": [
        {
          "internalType": "uint256",
          "name": "",
          "type": "uint256"
        }
      ],
      "stateMutability": "view",
      "type": "function"
    },
    {
      "inputs": [
        {
          "internalType": "address",
          "name": "",
          "type": "address"
        }
      ],
      "name": "stakes",
      "outputs": [
        {
          "internalType": "uint256",
          "name": "amount",
          "type": "uint256"
        },
        {
          "internalType": "uint256",
          "name": "lastClaimTimestamp",
          "type": "uint256"
        },
        {
          "internalType": "uint256",
          "name": "firstDepositTimestamp",
          "type": "uint256"
        },
        {
          "internalType": "uint256",
          "name": "bonusPoints",
          "type": "uint256"
        }
      ],
      "stateMutability": "view",
      "type": "function"
    },
    {
      "inputs": [],
      "name": "totalValueLocked",
      "outputs": [
        {
          "internalType": "uint256",
          "name": "",
          "type": "uint256"
        }
      ],
      "stateMutability": "view",
      "type": "function"
    },
    {
      "inputs": [
        {
          "internalType": "address",
          "name": "newOwner",
          "type": "address"
        }
      ],
      "name": "transferOwnership",
      "outputs": [],
      "stateMutability": "nonpayable",
      "type": "function"
    },
    {
      "inputs": [],
      "name": "withdraw",
      "outputs": [],
      "stateMutability": "nonpayable",
      "type": "function"
    }
  ],
  "bytecode": "0x608060405266041ca7e961012f6002553480156200001c57600080fd5b50604051620028743803806200287483398181016040528101906200004291906200035a565b33600073ffffffffffffffffffffffffffffffffffffffff168173ffffffffffffffffffffffffffffffffffffffff1603620000b85760006040517f1e4fbdf7000000000000000000000000000000000000000000000000000000008152600401620000af91906200039d565b60405180910390fd5b620000c9816200022c60201b60201c565b5080600160006101000a81548173ffffffffffffffffffffffffffffffffffffffff021916908373ffffffffffffffffffffffffffffffffffffffff16021790555060008061016773ffffffffffffffffffffffffffffffffffffffff166349146bde60e01b308560405160240162000144929190620003ba565b604051602081830303815290604052907bffffffffffffffffffffffffffffffffffffffffffffffffffffffff19166020820180517bffffffffffffffffffffffffffffffffffffffffffffffffffffffff8381831617835250505050604051620001b0919062000460565b6000604051808303816000865af19150503d8060008114620001ef576040519150601f19603f3d011682016040523d82523d6000602084013e620001f4565b606091505b50915091506000826200020957601662000220565b818060200190518101906200021f9190620004b7565b5b905050505050620004e9565b60008060009054906101000a900473ffffffffffffffffffffffffffffffffffffffff169050816000806101000a81548173ffffffffffffffffffffffffffffffffffffffff021916908373ffffffffffffffffffffffffffffffffffffffff1602179055508173ffffffffffffffffffffffffffffffffffffffff168173ffffffffffffffffffffffffffffffffffffffff167f8be0079c531659141344cd1fd0a4f28419497f9722a3daafe3b4186f6b6457e060405160405180910390a35050565b600080fd5b600073ffffffffffffffffffffffffffffffffffffffff82169050919050565b60006200032282620002f5565b9050919050565b620003348162000315565b81146200034057600080fd5b50565b600081519050620003548162000329565b92915050565b600060208284031215620003735762000372620002f0565b5b6000620003838482850162000343565b91505092915050565b620003978162000315565b82525050565b6000602082019050620003b460008301846200038c565b92915050565b6000604082019050620003d160008301856200038c565b620003e060208301846200038c565b9392505050565b600081519050919050565b600081905092915050565b60005b838110156200041d57808201518184015260208101905062000400565b60008484015250505050565b60006200043682620003e7565b620004428185620003f2565b935062000454818560208601620003fd565b80840191505092915050565b60006200046e828462000429565b915081905092915050565b60008160030b9050919050565b620004918162000479565b81146200049d57600080fd5b50565b600081519050620004b18162000486565b92915050565b600060208284031215620004d057620004cf620002f0565b5b6000620004e084828501620004a0565b91505092915050565b61237b80620004f96000396000f3fe6080604052600436106100e85760003560e01c8063715018a61161008a578063d0e30db011610059578063d0e30db0146102bd578063e3cb8563146102c7578063ec18154e146102f2578063f2fde38b1461031d576100e8565b8063715018a6146102295780638d74d343146102405780638da5cb5b14610269578063b35405e214610294576100e8565b80633ccfd60b116100c65780633ccfd60b14610193578063406cf229146101aa578063567add64146101c15780635d773b2c146101fe576100e8565b806316934fc4146100ed578063214e5ae61461012d57806327e235e314610156575b600080fd5b3480156100f957600080fd5b50610114600480360381019061010f919061198c565b610346565b60405161012494939291906119d2565b60405180910390f35b34801561013957600080fd5b50610154600480360381019061014f9190611a43565b610376565b005b34801561016257600080fd5b5061017d6004803603810190610178919061198c565b610507565b60405161018a9190611a70565b60405180910390f35b34801561019f57600080fd5b506101a8610553565b005b3480156101b657600080fd5b506101bf6109c2565b005b3480156101cd57600080fd5b506101e860048036038101906101e3919061198c565b610cb5565b6040516101f59190611a70565b60405180910390f35b34801561020a57600080fd5b50610213610e4f565b6040516102209190611a70565b60405180910390f35b34801561023557600080fd5b5061023e610e55565b005b34801561024c57600080fd5b5061026760048036038101906102629190611a43565b610e69565b005b34801561027557600080fd5b5061027e610f6b565b60405161028b9190611a9a565b60405180910390f35b3480156102a057600080fd5b506102bb60048036038101906102b6919061198c565b610f94565b005b6102c56110fd565b005b3480156102d357600080fd5b506102dc611724565b6040516102e99190611b14565b60405180910390f35b3480156102fe57600080fd5b5061030761174a565b6040516103149190611a70565b60405180910390f35b34801561032957600080fd5b50610344600480360381019061033f919061198c565b611750565b005b60036020528060005260406000206000915090508060000154908060010154908060020154908060030154905084565b61037e6117d6565b80600160009054906101000a900473ffffffffffffffffffffffffffffffffffffffff1673ffffffffffffffffffffffffffffffffffffffff166370a08231306040518263ffffffff1660e01b81526004016103da9190611a9a565b602060405180830381865afa1580156103f7573d6000803e3d6000fd5b505050506040513d601f19601f8201168201806040525081019061041b9190611b44565b101561045c576040517f08c379a000000000000000000000000000000000000000000000000000000000815260040161045390611bce565b60405180910390fd5b600160009054906101000a900473ffffffffffffffffffffffffffffffffffffffff1673ffffffffffffffffffffffffffffffffffffffff1663a9059cbb6104a2610f6b565b836040518363ffffffff1660e01b81526004016104c0929190611bee565b6020604051808303816000875af11580156104df573d6000803e3d6000fd5b505050506040513d601f19601f820116820180604052508101906105039190611c4f565b5050565b6000600360008373ffffffffffffffffffffffffffffffffffffffff1673ffffffffffffffffffffffffffffffffffffffff168152602001908152602001600020600001549050919050565b6000600360003373ffffffffffffffffffffffffffffffffffffffff1673ffffffffffffffffffffffffffffffffffffffff168152602001908152602001600020600001549050600081116105dd576040517f08c379a00000000000000000000000000000000000000000000000000000000081526004016105d490611cc8565b60405180910390fd5b60006105e833610cb5565b9050600081118015610695575080600160009054906101000a900473ffffffffffffffffffffffffffffffffffffffff1673ffffffffffffffffffffffffffffffffffffffff166370a08231306040518263ffffffff1660e01b81526004016106519190611a9a565b602060405180830381865afa15801561066e573d6000803e3d6000fd5b505050506040513d601f19601f820116820180604052508101906106929190611b44565b10155b1561078a573373ffffffffffffffffffffffffffffffffffffffff167fc04825ba3f383b602255d2a13065a68e325c65c9e0ed5d031ea2b06f641873af826040516106e09190611a70565b60405180910390a2600160009054906101000a900473ffffffffffffffffffffffffffffffffffffffff1673ffffffffffffffffffffffffffffffffffffffff1663a9059cbb33836040518363ffffffff1660e01b8152600401610745929190611bee565b6020604051808303816000875af1158015610764573d6000803e3d6000fd5b505050506040513d601f19601f820116820180604052508101906107889190611c4f565b505b6000600360003373ffffffffffffffffffffffffffffffffffffffff1673ffffffffffffffffffffffffffffffffffffffff168152602001908152602001600020600001819055506000600360003373ffffffffffffffffffffffffffffffffffffffff1673ffffffffffffffffffffffffffffffffffffffff168152602001908152602001600020600101819055506000600360003373ffffffffffffffffffffffffffffffffffffffff1673ffffffffffffffffffffffffffffffffffffffff168152602001908152602001600020600201819055506000600360003373ffffffffffffffffffffffffffffffffffffffff1673ffffffffffffffffffffffffffffffffffffffff1681526020019081526020016000206003018190555081600460008282546108bc9190611d17565b925050819055503373ffffffffffffffffffffffffffffffffffffffff167f7084f5476618d8e60b11ef0d7d3f06914655adb8793e28ff7f018d4c76d505d5836040516109099190611a70565b60405180910390a260003373ffffffffffffffffffffffffffffffffffffffff168360405161093790611d7c565b60006040518083038185875af1925050503d8060008114610974576040519150601f19603f3d011682016040523d82523d6000602084013e610979565b606091505b50509050806109bd576040517f08c379a00000000000000000000000000000000000000000000000000000000081526004016109b490611ddd565b60405180910390fd5b505050565b60006109cd33610cb5565b905060008111610a12576040517f08c379a0000000000000000000000000000000000000000000000000000000008152600401610a0990611e49565b60405180910390fd5b42600360003373ffffffffffffffffffffffffffffffffffffffff1673ffffffffffffffffffffffffffffffffffffffff168152602001908152602001600020600101819055506000600360003373ffffffffffffffffffffffffffffffffffffffff1673ffffffffffffffffffffffffffffffffffffffff1681526020019081526020016000206003018190555080600160009054906101000a900473ffffffffffffffffffffffffffffffffffffffff1673ffffffffffffffffffffffffffffffffffffffff166370a08231306040518263ffffffff1660e01b8152600401610afd9190611a9a565b602060405180830381865afa158015610b1a573d6000803e3d6000fd5b505050506040513d601f19601f82011682018060405250810190610b3e9190611b44565b1015610b7f576040517f08c379a0000000000000000000000000000000000000000000000000000000008152600401610b7690611edb565b60405180910390fd5b3373ffffffffffffffffffffffffffffffffffffffff167fc04825ba3f383b602255d2a13065a68e325c65c9e0ed5d031ea2b06f641873af82604051610bc59190611a70565b60405180910390a26000600160009054906101000a900473ffffffffffffffffffffffffffffffffffffffff1673ffffffffffffffffffffffffffffffffffffffff1663a9059cbb33846040518363ffffffff1660e01b8152600401610c2c929190611bee565b6020604051808303816000875af1158015610c4b573d6000803e3d6000fd5b505050506040513d601f19601f82011682018060405250810190610c6f9190611c4f565b905080610cb1576040517f08c379a0000000000000000000000000000000000000000000000000000000008152600401610ca890611f6d565b60405180910390fd5b5050565b600080600360008473ffffffffffffffffffffffffffffffffffffffff1673ffffffffffffffffffffffffffffffffffffffff1681526020019081526020016000206040518060800160405290816000820154815260200160018201548152602001600282015481526020016003820154815250509050600081600001511480610d43575060008160200151145b80610d52575060008160400151145b15610d61576000915050610e4a565b6000816020015142610d739190611d17565b90506000826040015142610d879190611d17565b905060006002549050621275008210610dae57600281610da79190611f8d565b9050610e00565b62093a808210610dd8576064609682610dc79190611f8d565b610dd19190611ffe565b9050610dff565b6203f4808210610dfe576064607882610df19190611f8d565b610dfb9190611ffe565b90505b5b5b6000670de0b6b3a764000082858760000151610e1c9190611f8d565b610e269190611f8d565b610e309190611ffe565b8560600151610e3f919061202f565b905080955050505050505b919050565b60025481565b610e5d6117d6565b610e67600061185d565b565b610e716117d6565b80471015610eb4576040517f08c379a0000000000000000000000000000000000000000000000000000000008152600401610eab906120af565b60405180910390fd5b6000610ebe610f6b565b73ffffffffffffffffffffffffffffffffffffffff1682604051610ee190611d7c565b60006040518083038185875af1925050503d8060008114610f1e576040519150601f19603f3d011682016040523d82523d6000602084013e610f23565b606091505b5050905080610f67576040517f08c379a0000000000000000000000000000000000000000000000000000000008152600401610f5e9061211b565b60405180910390fd5b5050565b60008060009054906101000a900473ffffffffffffffffffffffffffffffffffffffff16905090565b610f9c6117d6565b60008061016773ffffffffffffffffffffffffffffffffffffffff166349146bde60e01b3085604051602401610fd392919061213b565b604051602081830303815290604052907bffffffffffffffffffffffffffffffffffffffffffffffffffffffff19166020820180517bffffffffffffffffffffffffffffffffffffffffffffffffffffffff838183161783525050505060405161103d91906121ca565b6000604051808303816000865af19150503d806000811461107a576040519150601f19603f3d011682016040523d82523d6000602084013e61107f565b606091505b50915091506000826110925760166110a7565b818060200190518101906110a6919061221a565b5b905060168160030b14806110b85750825b6110f7576040517f08c379a00000000000000000000000000000000000000000000000000000000081526004016110ee90612293565b60405180910390fd5b50505050565b60003411611140576040517f08c379a000000000000000000000000000000000000000000000000000000000815260040161113790612325565b60405180910390fd5b6000600360003373ffffffffffffffffffffffffffffffffffffffff1673ffffffffffffffffffffffffffffffffffffffff1681526020019081526020016000206000015411156113c957600061119633610cb5565b9050600081118015611243575080600160009054906101000a900473ffffffffffffffffffffffffffffffffffffffff1673ffffffffffffffffffffffffffffffffffffffff166370a08231306040518263ffffffff1660e01b81526004016111ff9190611a9a565b602060405180830381865afa15801561121c573d6000803e3d6000fd5b505050506040513d601f19601f820116820180604052508101906112409190611b44565b10155b156113c75742600360003373ffffffffffffffffffffffffffffffffffffffff1673ffffffffffffffffffffffffffffffffffffffff168152602001908152602001600020600101819055506000600360003373ffffffffffffffffffffffffffffffffffffffff1673ffffffffffffffffffffffffffffffffffffffff168152602001908152602001600020600301819055503373ffffffffffffffffffffffffffffffffffffffff167fc04825ba3f383b602255d2a13065a68e325c65c9e0ed5d031ea2b06f641873af8260405161131d9190611a70565b60405180910390a2600160009054906101000a900473ffffffffffffffffffffffffffffffffffffffff1673ffffffffffffffffffffffffffffffffffffffff1663a9059cbb33836040518363ffffffff1660e01b8152600401611382929190611bee565b6020604051808303816000875af11580156113a1573d6000803e3d6000fd5b505050506040513d601f19601f820116820180604052508101906113c59190611c4f565b505b505b60006064346113d89190611f8d565b905080600360003373ffffffffffffffffffffffffffffffffffffffff1673ffffffffffffffffffffffffffffffffffffffff168152602001908152602001600020600301600082825461142c919061202f565b925050819055506000600360003373ffffffffffffffffffffffffffffffffffffffff1673ffffffffffffffffffffffffffffffffffffffff16815260200190815260200160002060000154036114c95742600360003373ffffffffffffffffffffffffffffffffffffffff1673ffffffffffffffffffffffffffffffffffffffff1681526020019081526020016000206002018190555061161a565b6000600360003373ffffffffffffffffffffffffffffffffffffffff1673ffffffffffffffffffffffffffffffffffffffff16815260200190815260200160002060000154600360003373ffffffffffffffffffffffffffffffffffffffff1673ffffffffffffffffffffffffffffffffffffffff1681526020019081526020016000206002015461155b9190611f8d565b90506000344261156b9190611f8d565b905034600360003373ffffffffffffffffffffffffffffffffffffffff1673ffffffffffffffffffffffffffffffffffffffff168152602001908152602001600020600001546115bb919061202f565b81836115c7919061202f565b6115d19190611ffe565b600360003373ffffffffffffffffffffffffffffffffffffffff1673ffffffffffffffffffffffffffffffffffffffff1681526020019081526020016000206002018190555050505b34600360003373ffffffffffffffffffffffffffffffffffffffff1673ffffffffffffffffffffffffffffffffffffffff168152602001908152602001600020600001600082825461166c919061202f565b9250508190555042600360003373ffffffffffffffffffffffffffffffffffffffff1673ffffffffffffffffffffffffffffffffffffffff1681526020019081526020016000206001018190555034600460008282546116cc919061202f565b925050819055503373ffffffffffffffffffffffffffffffffffffffff167f2da466a7b24304f47e87fa2e1e5a81b9831ce54fec19055ce277ca2f39ba42c4346040516117199190611a70565b60405180910390a250565b600160009054906101000a900473ffffffffffffffffffffffffffffffffffffffff1681565b60045481565b6117586117d6565b600073ffffffffffffffffffffffffffffffffffffffff168173ffffffffffffffffffffffffffffffffffffffff16036117ca5760006040517f1e4fbdf70000000000000000000000000000000000000000000000000000000081526004016117c19190611a9a565b60405180910390fd5b6117d38161185d565b50565b6117de611921565b73ffffffffffffffffffffffffffffffffffffffff166117fc610f6b565b73ffffffffffffffffffffffffffffffffffffffff161461185b5761181f611921565b6040517f118cdaa70000000000000000000000000000000000000000000000000000000081526004016118529190611a9a565b60405180910390fd5b565b60008060009054906101000a900473ffffffffffffffffffffffffffffffffffffffff169050816000806101000a81548173ffffffffffffffffffffffffffffffffffffffff021916908373ffffffffffffffffffffffffffffffffffffffff1602179055508173ffffffffffffffffffffffffffffffffffffffff168173ffffffffffffffffffffffffffffffffffffffff167f8be0079c531659141344cd1fd0a4f28419497f9722a3daafe3b4186f6b6457e060405160405180910390a35050565b600033905090565b600080fd5b600073ffffffffffffffffffffffffffffffffffffffff82169050919050565b60006119598261192e565b9050919050565b6119698161194e565b811461197457600080fd5b50565b60008135905061198681611960565b92915050565b6000602082840312156119a2576119a1611929565b5b60006119b084828501611977565b91505092915050565b6000819050919050565b6119cc816119b9565b82525050565b60006080820190506119e760008301876119c3565b6119f460208301866119c3565b611a0160408301856119c3565b611a0e60608301846119c3565b95945050505050565b611a20816119b9565b8114611a2b57600080fd5b50565b600081359050611a3d81611a17565b92915050565b600060208284031215611a5957611a58611929565b5b6000611a6784828501611a2e565b91505092915050565b6000602082019050611a8560008301846119c3565b92915050565b611a948161194e565b82525050565b6000602082019050611aaf6000830184611a8b565b92915050565b6000819050919050565b6000611ada611ad5611ad08461192e565b611ab5565b61192e565b9050919050565b6000611aec82611abf565b9050919050565b6000611afe82611ae1565b9050919050565b611b0e81611af3565b82525050565b6000602082019050611b296000830184611b05565b92915050565b600081519050611b3e81611a17565b92915050565b600060208284031215611b5a57611b59611929565b5b6000611b6884828501611b2f565b91505092915050565b600082825260208201905092915050565b7f4e6f7420656e6f75676820504c415920696e2074686520636f6e74726163742e600082015250565b6000611bb8602083611b71565b9150611bc382611b82565b602082019050919050565b60006020820190508181036000830152611be781611bab565b9050919050565b6000604082019050611c036000830185611a8b565b611c1060208301846119c3565b9392505050565b60008115159050919050565b611c2c81611c17565b8114611c3757600080fd5b50565b600081519050611c4981611c23565b92915050565b600060208284031215611c6557611c64611929565b5b6000611c7384828501611c3a565b91505092915050565b7f4e6f2062616c616e636520746f20776974686472617700000000000000000000600082015250565b6000611cb2601683611b71565b9150611cbd82611c7c565b602082019050919050565b60006020820190508181036000830152611ce181611ca5565b9050919050565b7f4e487b7100000000000000000000000000000000000000000000000000000000600052601160045260246000fd5b6000611d22826119b9565b9150611d2d836119b9565b9250828203905081811115611d4557611d44611ce8565b5b92915050565b600081905092915050565b50565b6000611d66600083611d4b565b9150611d7182611d56565b600082019050919050565b6000611d8782611d59565b9150819050919050565b7f5472616e73666572206661696c65640000000000000000000000000000000000600082015250565b6000611dc7600f83611b71565b9150611dd282611d91565b602082019050919050565b60006020820190508181036000830152611df681611dba565b9050919050565b7f4e6f207969656c6420746f20636c61696d000000000000000000000000000000600082015250565b6000611e33601183611b71565b9150611e3e82611dfd565b602082019050919050565b60006020820190508181036000830152611e6281611e26565b9050919050565b7f5661756c742068617320696e73756666696369656e7420504c4159207265736560008201527f7276650000000000000000000000000000000000000000000000000000000000602082015250565b6000611ec5602383611b71565b9150611ed082611e69565b604082019050919050565b60006020820190508181036000830152611ef481611eb8565b9050919050565b7f5969656c64207472616e73666572206661696c65642e2041726520796f75206160008201527f73736f6369617465643f00000000000000000000000000000000000000000000602082015250565b6000611f57602a83611b71565b9150611f6282611efb565b604082019050919050565b60006020820190508181036000830152611f8681611f4a565b9050919050565b6000611f98826119b9565b9150611fa3836119b9565b9250828202611fb1816119b9565b91508282048414831517611fc857611fc7611ce8565b5b5092915050565b7f4e487b7100000000000000000000000000000000000000000000000000000000600052601260045260246000fd5b6000612009826119b9565b9150612014836119b9565b92508261202457612023611fcf565b5b828204905092915050565b600061203a826119b9565b9150612045836119b9565b925082820190508082111561205d5761205c611ce8565b5b92915050565b7f4e6f7420656e6f756768204842415220696e2074686520636f6e74726163742e600082015250565b6000612099602083611b71565b91506120a482612063565b602082019050919050565b600060208201905081810360008301526120c88161208c565b9050919050565b7f41646d696e207472616e73666572206661696c65640000000000000000000000600082015250565b6000612105601583611b71565b9150612110826120cf565b602082019050919050565b60006020820190508181036000830152612134816120f8565b9050919050565b60006040820190506121506000830185611a8b565b61215d6020830184611a8b565b9392505050565b600081519050919050565b60005b8381101561218d578082015181840152602081019050612172565b60008484015250505050565b60006121a482612164565b6121ae8185611d4b565b93506121be81856020860161216f565b80840191505092915050565b60006121d68284612199565b915081905092915050565b60008160030b9050919050565b6121f7816121e1565b811461220257600080fd5b50565b600081519050612214816121ee565b92915050565b6000602082840312156122305761222f611929565b5b600061223e84828501612205565b91505092915050565b7f4d616e75616c206173736f63696174696f6e206661696c656400000000000000600082015250565b600061227d601983611b71565b915061228882612247565b602082019050919050565b600060208201905081810360008301526122ac81612270565b9050919050565b7f4465706f73697420616d6f756e74206d7573742062652067726561746572207460008201527f68616e207a65726f000000000000000000000000000000000000000000000000602082015250565b600061230f602883611b71565b915061231a826122b3565b604082019050919050565b6000602082019050818103600083015261233e81612302565b905091905056fea264697066735822122099cb5a4fca6f7dd809b8b76f8717a018066856b63531df5dd36cab6aff5b989364736f6c63430008140033",
  "linkReferences": {},
  "deployedLinkReferences": {}
}