{
  "_format": "hh-sol-artifact-1",
  "contractName": "PlayFiVault",
  "sourceName": "contracts/PlayFiVault.sol",
  "abi": [
    {
      "inputs": [
        {
          "internalType": "address",
          "name": "_playToken",
          "type": "address"
        }
      ],
      "stateMutability": "nonpayable",
      "type": "constructor"
    },
    {
      "inputs": [
        {
          "internalType": "address",
          "name": "owner",
          "type": "address"
        }
      ],
      "name": "OwnableInvalidOwner",
      "type": "error"
    },
    {
      "inputs": [
        {
          "internalType": "address",
          "name": "account",
          "type": "address"
        }
      ],
      "name": "OwnableUnauthorizedAccount",
      "type": "error"
    },
    {
      "anonymous": false,
      "inputs": [
        {
          "indexed": true,
          "internalType": "address",
          "name": "user",
          "type": "address"
        },
        {
          "indexed": false,
          "internalType": "uint256",
          "name": "amount",
          "type": "uint256"
        }
      ],
      "name": "Deposited",
      "type": "event"
    },
    {
      "anonymous": false,
      "inputs": [
        {
          "indexed": true,
          "internalType": "address",
          "name": "previousOwner",
          "type": "address"
        },
        {
          "indexed": true,
          "internalType": "address",
          "name": "newOwner",
          "type": "address"
        }
      ],
      "name": "OwnershipTransferred",
      "type": "event"
    },
    {
      "anonymous": false,
      "inputs": [
        {
          "indexed": true,
          "internalType": "address",
          "name": "user",
          "type": "address"
        },
        {
          "indexed": false,
          "internalType": "uint256",
          "name": "amount",
          "type": "uint256"
        }
      ],
      "name": "Withdrawn",
      "type": "event"
    },
    {
      "anonymous": false,
      "inputs": [
        {
          "indexed": true,
          "internalType": "address",
          "name": "user",
          "type": "address"
        },
        {
          "indexed": false,
          "internalType": "uint256",
          "name": "yield",
          "type": "uint256"
        }
      ],
      "name": "YieldClaimed",
      "type": "event"
    },
    {
      "inputs": [
        {
          "internalType": "uint256",
          "name": "amount",
          "type": "uint256"
        }
      ],
      "name": "adminWithdrawHbar",
      "outputs": [],
      "stateMutability": "nonpayable",
      "type": "function"
    },
    {
      "inputs": [
        {
          "internalType": "uint256",
          "name": "amount",
          "type": "uint256"
        }
      ],
      "name": "adminWithdrawPlay",
      "outputs": [],
      "stateMutability": "nonpayable",
      "type": "function"
    },
    {
      "inputs": [
        {
          "internalType": "address",
          "name": "_token",
          "type": "address"
        }
      ],
      "name": "associateVault",
      "outputs": [],
      "stateMutability": "nonpayable",
      "type": "function"
    },
    {
      "inputs": [
        {
          "internalType": "address",
          "name": "user",
          "type": "address"
        }
      ],
      "name": "balances",
      "outputs": [
        {
          "internalType": "uint256",
          "name": "",
          "type": "uint256"
        }
      ],
      "stateMutability": "view",
      "type": "function"
    },
    {
      "inputs": [
        {
          "internalType": "address",
          "name": "user",
          "type": "address"
        }
      ],
      "name": "calculateYield",
      "outputs": [
        {
          "internalType": "uint256",
          "name": "",
          "type": "uint256"
        }
      ],
      "stateMutability": "view",
      "type": "function"
    },
    {
      "inputs": [],
      "name": "claimYield",
      "outputs": [],
      "stateMutability": "nonpayable",
      "type": "function"
    },
    {
      "inputs": [],
      "name": "deposit",
      "outputs": [],
      "stateMutability": "payable",
      "type": "function"
    },
    {
      "inputs": [],
      "name": "owner",
      "outputs": [
        {
          "internalType": "address",
          "name": "",
          "type": "address"
        }
      ],
      "stateMutability": "view",
      "type": "function"
    },
    {
      "inputs": [],
      "name": "playToken",
      "outputs": [
        {
          "internalType": "contract IERC20",
          "name": "",
          "type": "address"
        }
      ],
      "stateMutability": "view",
      "type": "function"
    },
    {
      "inputs": [],
      "name": "renounceOwnership",
      "outputs": [],
      "stateMutability": "nonpayable",
      "type": "function"
    },
    {
      "inputs": [],
      "name": "rewardRatePerSecond",
      "outputs": [
        {
          "internalType": "uint256",
          "name": "",
          "type": "uint256"
        }
      ],
      "stateMutability": "view",
      "type": "function"
    },
    {
      "inputs": [
        {
          "internalType": "address",
          "name": "",
          "type": "address"
        }
      ],
      "name": "stakes",
      "outputs": [
        {
          "internalType": "uint256",
          "name": "amount",
          "type": "uint256"
        },
        {
          "internalType": "uint256",
          "name": "lastClaimTimestamp",
          "type": "uint256"
        }
      ],
      "stateMutability": "view",
      "type": "function"
    },
    {
      "inputs": [],
      "name": "totalValueLocked",
      "outputs": [
        {
          "internalType": "uint256",
          "name": "",
          "type": "uint256"
        }
      ],
      "stateMutability": "view",
      "type": "function"
    },
    {
      "inputs": [
        {
          "internalType": "address",
          "name": "newOwner",
          "type": "address"
        }
      ],
      "name": "transferOwnership",
      "outputs": [],
      "stateMutability": "nonpayable",
      "type": "function"
    },
    {
      "inputs": [],
      "name": "withdraw",
      "outputs": [],
      "stateMutability": "nonpayable",
      "type": "function"
    }
  ],
  "bytecode": "0x6080604052650a86cc92e3da6002553480156200001b57600080fd5b506040516200241a3803806200241a833981810160405281019062000041919062000359565b33600073ffffffffffffffffffffffffffffffffffffffff168173ffffffffffffffffffffffffffffffffffffffff1603620000b75760006040517f1e4fbdf7000000000000000000000000000000000000000000000000000000008152600401620000ae91906200039c565b60405180910390fd5b620000c8816200022b60201b60201c565b5080600160006101000a81548173ffffffffffffffffffffffffffffffffffffffff021916908373ffffffffffffffffffffffffffffffffffffffff16021790555060008061016773ffffffffffffffffffffffffffffffffffffffff166349146bde60e01b308560405160240162000143929190620003b9565b604051602081830303815290604052907bffffffffffffffffffffffffffffffffffffffffffffffffffffffff19166020820180517bffffffffffffffffffffffffffffffffffffffffffffffffffffffff8381831617835250505050604051620001af91906200045f565b6000604051808303816000865af19150503d8060008114620001ee576040519150601f19603f3d011682016040523d82523d6000602084013e620001f3565b606091505b5091509150600082620002085760166200021f565b818060200190518101906200021e9190620004b6565b5b905050505050620004e8565b60008060009054906101000a900473ffffffffffffffffffffffffffffffffffffffff169050816000806101000a81548173ffffffffffffffffffffffffffffffffffffffff021916908373ffffffffffffffffffffffffffffffffffffffff1602179055508173ffffffffffffffffffffffffffffffffffffffff168173ffffffffffffffffffffffffffffffffffffffff167f8be0079c531659141344cd1fd0a4f28419497f9722a3daafe3b4186f6b6457e060405160405180910390a35050565b600080fd5b600073ffffffffffffffffffffffffffffffffffffffff82169050919050565b60006200032182620002f4565b9050919050565b620003338162000314565b81146200033f57600080fd5b50565b600081519050620003538162000328565b92915050565b600060208284031215620003725762000371620002ef565b5b6000620003828482850162000342565b91505092915050565b620003968162000314565b82525050565b6000602082019050620003b360008301846200038b565b92915050565b6000604082019050620003d060008301856200038b565b620003df60208301846200038b565b9392505050565b600081519050919050565b600081905092915050565b60005b838110156200041c578082015181840152602081019050620003ff565b60008484015250505050565b60006200043582620003e6565b620004418185620003f1565b935062000453818560208601620003fc565b80840191505092915050565b60006200046d828462000428565b915081905092915050565b60008160030b9050919050565b620004908162000478565b81146200049c57600080fd5b50565b600081519050620004b08162000485565b92915050565b600060208284031215620004cf57620004ce620002ef565b5b6000620004df848285016200049f565b91505092915050565b611f2280620004f86000396000f3fe6080604052600436106100e85760003560e01c8063715018a61161008a578063d0e30db011610059578063d0e30db0146102bb578063e3cb8563146102c5578063ec18154e146102f0578063f2fde38b1461031b576100e8565b8063715018a6146102275780638d74d3431461023e5780638da5cb5b14610267578063b35405e214610292576100e8565b80633ccfd60b116100c65780633ccfd60b14610191578063406cf229146101a8578063567add64146101bf5780635d773b2c146101fc576100e8565b806316934fc4146100ed578063214e5ae61461012b57806327e235e314610154575b600080fd5b3480156100f957600080fd5b50610114600480360381019061010f919061154f565b610344565b604051610122929190611595565b60405180910390f35b34801561013757600080fd5b50610152600480360381019061014d91906115ea565b610368565b005b34801561016057600080fd5b5061017b6004803603810190610176919061154f565b6104f9565b6040516101889190611617565b60405180910390f35b34801561019d57600080fd5b506101a6610545565b005b3480156101b457600080fd5b506101bd610924565b005b3480156101cb57600080fd5b506101e660048036038101906101e1919061154f565b610bcf565b6040516101f39190611617565b60405180910390f35b34801561020857600080fd5b50610211610cac565b60405161021e9190611617565b60405180910390f35b34801561023357600080fd5b5061023c610cb2565b005b34801561024a57600080fd5b50610265600480360381019061026091906115ea565b610cc6565b005b34801561027357600080fd5b5061027c610dc8565b6040516102899190611641565b60405180910390f35b34801561029e57600080fd5b506102b960048036038101906102b4919061154f565b610df1565b005b6102c3610f5a565b005b3480156102d157600080fd5b506102da6112e7565b6040516102e791906116bb565b60405180910390f35b3480156102fc57600080fd5b5061030561130d565b6040516103129190611617565b60405180910390f35b34801561032757600080fd5b50610342600480360381019061033d919061154f565b611313565b005b60036020528060005260406000206000915090508060000154908060010154905082565b610370611399565b80600160009054906101000a900473ffffffffffffffffffffffffffffffffffffffff1673ffffffffffffffffffffffffffffffffffffffff166370a08231306040518263ffffffff1660e01b81526004016103cc9190611641565b602060405180830381865afa1580156103e9573d6000803e3d6000fd5b505050506040513d601f19601f8201168201806040525081019061040d91906116eb565b101561044e576040517f08c379a000000000000000000000000000000000000000000000000000000000815260040161044590611775565b60405180910390fd5b600160009054906101000a900473ffffffffffffffffffffffffffffffffffffffff1673ffffffffffffffffffffffffffffffffffffffff1663a9059cbb610494610dc8565b836040518363ffffffff1660e01b81526004016104b2929190611795565b6020604051808303816000875af11580156104d1573d6000803e3d6000fd5b505050506040513d601f19601f820116820180604052508101906104f591906117f6565b5050565b6000600360008373ffffffffffffffffffffffffffffffffffffffff1673ffffffffffffffffffffffffffffffffffffffff168152602001908152602001600020600001549050919050565b6000600360003373ffffffffffffffffffffffffffffffffffffffff1673ffffffffffffffffffffffffffffffffffffffff168152602001908152602001600020600001549050600081116105cf576040517f08c379a00000000000000000000000000000000000000000000000000000000081526004016105c69061186f565b60405180910390fd5b60006105da33610bcf565b9050600081118015610687575080600160009054906101000a900473ffffffffffffffffffffffffffffffffffffffff1673ffffffffffffffffffffffffffffffffffffffff166370a08231306040518263ffffffff1660e01b81526004016106439190611641565b602060405180830381865afa158015610660573d6000803e3d6000fd5b505050506040513d601f19601f8201168201806040525081019061068491906116eb565b10155b1561077c573373ffffffffffffffffffffffffffffffffffffffff167fc04825ba3f383b602255d2a13065a68e325c65c9e0ed5d031ea2b06f641873af826040516106d29190611617565b60405180910390a2600160009054906101000a900473ffffffffffffffffffffffffffffffffffffffff1673ffffffffffffffffffffffffffffffffffffffff1663a9059cbb33836040518363ffffffff1660e01b8152600401610737929190611795565b6020604051808303816000875af1158015610756573d6000803e3d6000fd5b505050506040513d601f19601f8201168201806040525081019061077a91906117f6565b505b6000600360003373ffffffffffffffffffffffffffffffffffffffff1673ffffffffffffffffffffffffffffffffffffffff168152602001908152602001600020600001819055506000600360003373ffffffffffffffffffffffffffffffffffffffff1673ffffffffffffffffffffffffffffffffffffffff16815260200190815260200160002060010181905550816004600082825461081e91906118be565b925050819055503373ffffffffffffffffffffffffffffffffffffffff167f7084f5476618d8e60b11ef0d7d3f06914655adb8793e28ff7f018d4c76d505d58360405161086b9190611617565b60405180910390a260003373ffffffffffffffffffffffffffffffffffffffff168360405161089990611923565b60006040518083038185875af1925050503d80600081146108d6576040519150601f19603f3d011682016040523d82523d6000602084013e6108db565b606091505b505090508061091f576040517f08c379a000000000000000000000000000000000000000000000000000000000815260040161091690611984565b60405180910390fd5b505050565b600061092f33610bcf565b905060008111610974576040517f08c379a000000000000000000000000000000000000000000000000000000000815260040161096b906119f0565b60405180910390fd5b42600360003373ffffffffffffffffffffffffffffffffffffffff1673ffffffffffffffffffffffffffffffffffffffff1681526020019081526020016000206001018190555080600160009054906101000a900473ffffffffffffffffffffffffffffffffffffffff1673ffffffffffffffffffffffffffffffffffffffff166370a08231306040518263ffffffff1660e01b8152600401610a179190611641565b602060405180830381865afa158015610a34573d6000803e3d6000fd5b505050506040513d601f19601f82011682018060405250810190610a5891906116eb565b1015610a99576040517f08c379a0000000000000000000000000000000000000000000000000000000008152600401610a9090611a82565b60405180910390fd5b3373ffffffffffffffffffffffffffffffffffffffff167fc04825ba3f383b602255d2a13065a68e325c65c9e0ed5d031ea2b06f641873af82604051610adf9190611617565b60405180910390a26000600160009054906101000a900473ffffffffffffffffffffffffffffffffffffffff1673ffffffffffffffffffffffffffffffffffffffff1663a9059cbb33846040518363ffffffff1660e01b8152600401610b46929190611795565b6020604051808303816000875af1158015610b65573d6000803e3d6000fd5b505050506040513d601f19601f82011682018060405250810190610b8991906117f6565b905080610bcb576040517f08c379a0000000000000000000000000000000000000000000000000000000008152600401610bc290611b14565b60405180910390fd5b5050565b600080600360008473ffffffffffffffffffffffffffffffffffffffff1673ffffffffffffffffffffffffffffffffffffffff168152602001908152602001600020604051806040016040529081600082015481526020016001820154815250509050600081600001511480610c49575060008160200151145b15610c58576000915050610ca7565b6000816020015142610c6a91906118be565b90506000670de0b6b3a7640000600254838560000151610c8a9190611b34565b610c949190611b34565b610c9e9190611ba5565b90508093505050505b919050565b60025481565b610cba611399565b610cc46000611420565b565b610cce611399565b80471015610d11576040517f08c379a0000000000000000000000000000000000000000000000000000000008152600401610d0890611c22565b60405180910390fd5b6000610d1b610dc8565b73ffffffffffffffffffffffffffffffffffffffff1682604051610d3e90611923565b60006040518083038185875af1925050503d8060008114610d7b576040519150601f19603f3d011682016040523d82523d6000602084013e610d80565b606091505b5050905080610dc4576040517f08c379a0000000000000000000000000000000000000000000000000000000008152600401610dbb90611c8e565b60405180910390fd5b5050565b60008060009054906101000a900473ffffffffffffffffffffffffffffffffffffffff16905090565b610df9611399565b60008061016773ffffffffffffffffffffffffffffffffffffffff166349146bde60e01b3085604051602401610e30929190611cae565b604051602081830303815290604052907bffffffffffffffffffffffffffffffffffffffffffffffffffffffff19166020820180517bffffffffffffffffffffffffffffffffffffffffffffffffffffffff8381831617835250505050604051610e9a9190611d3d565b6000604051808303816000865af19150503d8060008114610ed7576040519150601f19603f3d011682016040523d82523d6000602084013e610edc565b606091505b5091509150600082610eef576016610f04565b81806020019051810190610f039190611d8d565b5b905060168160030b1480610f155750825b610f54576040517f08c379a0000000000000000000000000000000000000000000000000000000008152600401610f4b90611e06565b60405180910390fd5b50505050565b60003411610f9d576040517f08c379a0000000000000000000000000000000000000000000000000000000008152600401610f9490611e98565b60405180910390fd5b6000600360003373ffffffffffffffffffffffffffffffffffffffff1673ffffffffffffffffffffffffffffffffffffffff1681526020019081526020016000206000015411156111de576000610ff333610bcf565b90506000811180156110a0575080600160009054906101000a900473ffffffffffffffffffffffffffffffffffffffff1673ffffffffffffffffffffffffffffffffffffffff166370a08231306040518263ffffffff1660e01b815260040161105c9190611641565b602060405180830381865afa158015611079573d6000803e3d6000fd5b505050506040513d601f19601f8201168201806040525081019061109d91906116eb565b10155b156111dc5742600360003373ffffffffffffffffffffffffffffffffffffffff1673ffffffffffffffffffffffffffffffffffffffff168152602001908152602001600020600101819055503373ffffffffffffffffffffffffffffffffffffffff167fc04825ba3f383b602255d2a13065a68e325c65c9e0ed5d031ea2b06f641873af826040516111329190611617565b60405180910390a2600160009054906101000a900473ffffffffffffffffffffffffffffffffffffffff1673ffffffffffffffffffffffffffffffffffffffff1663a9059cbb33836040518363ffffffff1660e01b8152600401611197929190611795565b6020604051808303816000875af11580156111b6573d6000803e3d6000fd5b505050506040513d601f19601f820116820180604052508101906111da91906117f6565b505b505b34600360003373ffffffffffffffffffffffffffffffffffffffff1673ffffffffffffffffffffffffffffffffffffffff16815260200190815260200160002060000160008282546112309190611eb8565b9250508190555042600360003373ffffffffffffffffffffffffffffffffffffffff1673ffffffffffffffffffffffffffffffffffffffff1681526020019081526020016000206001018190555034600460008282546112909190611eb8565b925050819055503373ffffffffffffffffffffffffffffffffffffffff167f2da466a7b24304f47e87fa2e1e5a81b9831ce54fec19055ce277ca2f39ba42c4346040516112dd9190611617565b60405180910390a2565b600160009054906101000a900473ffffffffffffffffffffffffffffffffffffffff1681565b60045481565b61131b611399565b600073ffffffffffffffffffffffffffffffffffffffff168173ffffffffffffffffffffffffffffffffffffffff160361138d5760006040517f1e4fbdf70000000000000000000000000000000000000000000000000000000081526004016113849190611641565b60405180910390fd5b61139681611420565b50565b6113a16114e4565b73ffffffffffffffffffffffffffffffffffffffff166113bf610dc8565b73ffffffffffffffffffffffffffffffffffffffff161461141e576113e26114e4565b6040517f118cdaa70000000000000000000000000000000000000000000000000000000081526004016114159190611641565b60405180910390fd5b565b60008060009054906101000a900473ffffffffffffffffffffffffffffffffffffffff169050816000806101000a81548173ffffffffffffffffffffffffffffffffffffffff021916908373ffffffffffffffffffffffffffffffffffffffff1602179055508173ffffffffffffffffffffffffffffffffffffffff168173ffffffffffffffffffffffffffffffffffffffff167f8be0079c531659141344cd1fd0a4f28419497f9722a3daafe3b4186f6b6457e060405160405180910390a35050565b600033905090565b600080fd5b600073ffffffffffffffffffffffffffffffffffffffff82169050919050565b600061151c826114f1565b9050919050565b61152c81611511565b811461153757600080fd5b50565b60008135905061154981611523565b92915050565b600060208284031215611565576115646114ec565b5b60006115738482850161153a565b91505092915050565b6000819050919050565b61158f8161157c565b82525050565b60006040820190506115aa6000830185611586565b6115b76020830184611586565b9392505050565b6115c78161157c565b81146115d257600080fd5b50565b6000813590506115e4816115be565b92915050565b600060208284031215611600576115ff6114ec565b5b600061160e848285016115d5565b91505092915050565b600060208201905061162c6000830184611586565b92915050565b61163b81611511565b82525050565b60006020820190506116566000830184611632565b92915050565b6000819050919050565b600061168161167c611677846114f1565b61165c565b6114f1565b9050919050565b600061169382611666565b9050919050565b60006116a582611688565b9050919050565b6116b58161169a565b82525050565b60006020820190506116d060008301846116ac565b92915050565b6000815190506116e5816115be565b92915050565b600060208284031215611701576117006114ec565b5b600061170f848285016116d6565b91505092915050565b600082825260208201905092915050565b7f4e6f7420656e6f75676820504c415920696e2074686520636f6e74726163742e600082015250565b600061175f602083611718565b915061176a82611729565b602082019050919050565b6000602082019050818103600083015261178e81611752565b9050919050565b60006040820190506117aa6000830185611632565b6117b76020830184611586565b9392505050565b60008115159050919050565b6117d3816117be565b81146117de57600080fd5b50565b6000815190506117f0816117ca565b92915050565b60006020828403121561180c5761180b6114ec565b5b600061181a848285016117e1565b91505092915050565b7f4e6f2062616c616e636520746f20776974686472617700000000000000000000600082015250565b6000611859601683611718565b915061186482611823565b602082019050919050565b600060208201905081810360008301526118888161184c565b9050919050565b7f4e487b7100000000000000000000000000000000000000000000000000000000600052601160045260246000fd5b60006118c98261157c565b91506118d48361157c565b92508282039050818111156118ec576118eb61188f565b5b92915050565b600081905092915050565b50565b600061190d6000836118f2565b9150611918826118fd565b600082019050919050565b600061192e82611900565b9150819050919050565b7f5472616e73666572206661696c65640000000000000000000000000000000000600082015250565b600061196e600f83611718565b915061197982611938565b602082019050919050565b6000602082019050818103600083015261199d81611961565b9050919050565b7f4e6f207969656c6420746f20636c61696d000000000000000000000000000000600082015250565b60006119da601183611718565b91506119e5826119a4565b602082019050919050565b60006020820190508181036000830152611a09816119cd565b9050919050565b7f5661756c742068617320696e73756666696369656e7420504c4159207265736560008201527f7276650000000000000000000000000000000000000000000000000000000000602082015250565b6000611a6c602383611718565b9150611a7782611a10565b604082019050919050565b60006020820190508181036000830152611a9b81611a5f565b9050919050565b7f5969656c64207472616e73666572206661696c65642e2041726520796f75206160008201527f73736f6369617465643f00000000000000000000000000000000000000000000602082015250565b6000611afe602a83611718565b9150611b0982611aa2565b604082019050919050565b60006020820190508181036000830152611b2d81611af1565b9050919050565b6000611b3f8261157c565b9150611b4a8361157c565b9250828202611b588161157c565b91508282048414831517611b6f57611b6e61188f565b5b5092915050565b7f4e487b7100000000000000000000000000000000000000000000000000000000600052601260045260246000fd5b6000611bb08261157c565b9150611bbb8361157c565b925082611bcb57611bca611b76565b5b828204905092915050565b7f4e6f7420656e6f756768204842415220696e2074686520636f6e74726163742e600082015250565b6000611c0c602083611718565b9150611c1782611bd6565b602082019050919050565b60006020820190508181036000830152611c3b81611bff565b9050919050565b7f41646d696e207472616e73666572206661696c65640000000000000000000000600082015250565b6000611c78601583611718565b9150611c8382611c42565b602082019050919050565b60006020820190508181036000830152611ca781611c6b565b9050919050565b6000604082019050611cc36000830185611632565b611cd06020830184611632565b9392505050565b600081519050919050565b60005b83811015611d00578082015181840152602081019050611ce5565b60008484015250505050565b6000611d1782611cd7565b611d2181856118f2565b9350611d31818560208601611ce2565b80840191505092915050565b6000611d498284611d0c565b915081905092915050565b60008160030b9050919050565b611d6a81611d54565b8114611d7557600080fd5b50565b600081519050611d8781611d61565b92915050565b600060208284031215611da357611da26114ec565b5b6000611db184828501611d78565b91505092915050565b7f4d616e75616c206173736f63696174696f6e206661696c656400000000000000600082015250565b6000611df0601983611718565b9150611dfb82611dba565b602082019050919050565b60006020820190508181036000830152611e1f81611de3565b9050919050565b7f4465706f73697420616d6f756e74206d7573742062652067726561746572207460008201527f68616e207a65726f000000000000000000000000000000000000000000000000602082015250565b6000611e82602883611718565b9150611e8d82611e26565b604082019050919050565b60006020820190508181036000830152611eb181611e75565b9050919050565b6000611ec38261157c565b9150611ece8361157c565b9250828201905080821115611ee657611ee561188f565b5b9291505056fea26469706673582212207e06be7d6001e75aef6978e99e28c938f411477799fa63b95aecf73257d8cdee64736f6c63430008140033",
  "linkReferences": {},
  "deployedLinkReferences": {}
}