{
  "_format": "hh-sol-artifact-1",
  "contractName": "PlayFiVault",
  "sourceName": "contracts/PlayFiVault.sol",
  "abi": [
    {
      "inputs": [
        {
          "internalType": "address",
          "name": "_playToken",
          "type": "address"
        }
      ],
      "stateMutability": "nonpayable",
      "type": "constructor"
    },
    {
      "inputs": [
        {
          "internalType": "address",
          "name": "owner",
          "type": "address"
        }
      ],
      "name": "OwnableInvalidOwner",
      "type": "error"
    },
    {
      "inputs": [
        {
          "internalType": "address",
          "name": "account",
          "type": "address"
        }
      ],
      "name": "OwnableUnauthorizedAccount",
      "type": "error"
    },
    {
      "anonymous": false,
      "inputs": [
        {
          "indexed": true,
          "internalType": "address",
          "name": "user",
          "type": "address"
        },
        {
          "indexed": false,
          "internalType": "uint256",
          "name": "amount",
          "type": "uint256"
        }
      ],
      "name": "Deposited",
      "type": "event"
    },
    {
      "anonymous": false,
      "inputs": [
        {
          "indexed": true,
          "internalType": "address",
          "name": "previousOwner",
          "type": "address"
        },
        {
          "indexed": true,
          "internalType": "address",
          "name": "newOwner",
          "type": "address"
        }
      ],
      "name": "OwnershipTransferred",
      "type": "event"
    },
    {
      "anonymous": false,
      "inputs": [
        {
          "indexed": true,
          "internalType": "address",
          "name": "user",
          "type": "address"
        },
        {
          "indexed": false,
          "internalType": "uint256",
          "name": "amount",
          "type": "uint256"
        }
      ],
      "name": "Withdrawn",
      "type": "event"
    },
    {
      "anonymous": false,
      "inputs": [
        {
          "indexed": true,
          "internalType": "address",
          "name": "user",
          "type": "address"
        },
        {
          "indexed": false,
          "internalType": "uint256",
          "name": "yield",
          "type": "uint256"
        }
      ],
      "name": "YieldClaimed",
      "type": "event"
    },
    {
      "inputs": [
        {
          "internalType": "uint256",
          "name": "amount",
          "type": "uint256"
        }
      ],
      "name": "adminWithdrawHbar",
      "outputs": [],
      "stateMutability": "nonpayable",
      "type": "function"
    },
    {
      "inputs": [
        {
          "internalType": "uint256",
          "name": "amount",
          "type": "uint256"
        }
      ],
      "name": "adminWithdrawPlay",
      "outputs": [],
      "stateMutability": "nonpayable",
      "type": "function"
    },
    {
      "inputs": [
        {
          "internalType": "address",
          "name": "_token",
          "type": "address"
        }
      ],
      "name": "associateVault",
      "outputs": [],
      "stateMutability": "nonpayable",
      "type": "function"
    },
    {
      "inputs": [
        {
          "internalType": "address",
          "name": "user",
          "type": "address"
        }
      ],
      "name": "balances",
      "outputs": [
        {
          "internalType": "uint256",
          "name": "",
          "type": "uint256"
        }
      ],
      "stateMutability": "view",
      "type": "function"
    },
    {
      "inputs": [
        {
          "internalType": "address",
          "name": "user",
          "type": "address"
        }
      ],
      "name": "calculateYield",
      "outputs": [
        {
          "internalType": "uint256",
          "name": "",
          "type": "uint256"
        }
      ],
      "stateMutability": "view",
      "type": "function"
    },
    {
      "inputs": [],
      "name": "claimYield",
      "outputs": [],
      "stateMutability": "nonpayable",
      "type": "function"
    },
    {
      "inputs": [],
      "name": "deposit",
      "outputs": [],
      "stateMutability": "payable",
      "type": "function"
    },
    {
      "inputs": [],
      "name": "owner",
      "outputs": [
        {
          "internalType": "address",
          "name": "",
          "type": "address"
        }
      ],
      "stateMutability": "view",
      "type": "function"
    },
    {
      "inputs": [],
      "name": "playToken",
      "outputs": [
        {
          "internalType": "contract IERC20",
          "name": "",
          "type": "address"
        }
      ],
      "stateMutability": "view",
      "type": "function"
    },
    {
      "inputs": [],
      "name": "renounceOwnership",
      "outputs": [],
      "stateMutability": "nonpayable",
      "type": "function"
    },
    {
      "inputs": [],
      "name": "rewardRatePerSecond",
      "outputs": [
        {
          "internalType": "uint256",
          "name": "",
          "type": "uint256"
        }
      ],
      "stateMutability": "view",
      "type": "function"
    },
    {
      "inputs": [
        {
          "internalType": "address",
          "name": "",
          "type": "address"
        }
      ],
      "name": "stakes",
      "outputs": [
        {
          "internalType": "uint256",
          "name": "amount",
          "type": "uint256"
        },
        {
          "internalType": "uint256",
          "name": "lastClaimTimestamp",
          "type": "uint256"
        },
        {
          "internalType": "uint256",
          "name": "firstDepositTimestamp",
          "type": "uint256"
        },
        {
          "internalType": "uint256",
          "name": "bonusPoints",
          "type": "uint256"
        }
      ],
      "stateMutability": "view",
      "type": "function"
    },
    {
      "inputs": [],
      "name": "totalValueLocked",
      "outputs": [
        {
          "internalType": "uint256",
          "name": "",
          "type": "uint256"
        }
      ],
      "stateMutability": "view",
      "type": "function"
    },
    {
      "inputs": [
        {
          "internalType": "address",
          "name": "newOwner",
          "type": "address"
        }
      ],
      "name": "transferOwnership",
      "outputs": [],
      "stateMutability": "nonpayable",
      "type": "function"
    },
    {
      "inputs": [],
      "name": "withdraw",
      "outputs": [],
      "stateMutability": "nonpayable",
      "type": "function"
    },
    {
      "inputs": [
        {
          "internalType": "uint256",
          "name": "_amount",
          "type": "uint256"
        }
      ],
      "name": "withdrawAmount",
      "outputs": [],
      "stateMutability": "nonpayable",
      "type": "function"
    }
  ],
  "bytecode": "0x608060405266041ca7e961012f6002553480156200001c57600080fd5b5060405162002f4238038062002f4283398181016040528101906200004291906200035a565b33600073ffffffffffffffffffffffffffffffffffffffff168173ffffffffffffffffffffffffffffffffffffffff1603620000b85760006040517f1e4fbdf7000000000000000000000000000000000000000000000000000000008152600401620000af91906200039d565b60405180910390fd5b620000c9816200022c60201b60201c565b5080600160006101000a81548173ffffffffffffffffffffffffffffffffffffffff021916908373ffffffffffffffffffffffffffffffffffffffff16021790555060008061016773ffffffffffffffffffffffffffffffffffffffff166349146bde60e01b308560405160240162000144929190620003ba565b604051602081830303815290604052907bffffffffffffffffffffffffffffffffffffffffffffffffffffffff19166020820180517bffffffffffffffffffffffffffffffffffffffffffffffffffffffff8381831617835250505050604051620001b0919062000460565b6000604051808303816000865af19150503d8060008114620001ef576040519150601f19603f3d011682016040523d82523d6000602084013e620001f4565b606091505b50915091506000826200020957601662000220565b818060200190518101906200021f9190620004b7565b5b905050505050620004e9565b60008060009054906101000a900473ffffffffffffffffffffffffffffffffffffffff169050816000806101000a81548173ffffffffffffffffffffffffffffffffffffffff021916908373ffffffffffffffffffffffffffffffffffffffff1602179055508173ffffffffffffffffffffffffffffffffffffffff168173ffffffffffffffffffffffffffffffffffffffff167f8be0079c531659141344cd1fd0a4f28419497f9722a3daafe3b4186f6b6457e060405160405180910390a35050565b600080fd5b600073ffffffffffffffffffffffffffffffffffffffff82169050919050565b60006200032282620002f5565b9050919050565b620003348162000315565b81146200034057600080fd5b50565b600081519050620003548162000329565b92915050565b600060208284031215620003735762000372620002f0565b5b6000620003838482850162000343565b91505092915050565b620003978162000315565b82525050565b6000602082019050620003b460008301846200038c565b92915050565b6000604082019050620003d160008301856200038c565b620003e060208301846200038c565b9392505050565b600081519050919050565b600081905092915050565b60005b838110156200041d57808201518184015260208101905062000400565b60008484015250505050565b60006200043682620003e7565b620004428185620003f2565b935062000454818560208601620003fd565b80840191505092915050565b60006200046e828462000429565b915081905092915050565b60008160030b9050919050565b620004918162000479565b81146200049d57600080fd5b50565b600081519050620004b18162000486565b92915050565b600060208284031215620004d057620004cf620002f0565b5b6000620004e084828501620004a0565b91505092915050565b612a4980620004f96000396000f3fe6080604052600436106100f35760003560e01c8063715018a61161008a578063d0e30db011610059578063d0e30db0146102f1578063e3cb8563146102fb578063ec18154e14610326578063f2fde38b14610351576100f3565b8063715018a61461025d5780638d74d343146102745780638da5cb5b1461029d578063b35405e2146102c8576100f3565b80633ccfd60b116100c65780633ccfd60b146101c7578063406cf229146101de578063567add64146101f55780635d773b2c14610232576100f3565b80630562b9f7146100f857806316934fc414610121578063214e5ae61461016157806327e235e31461018a575b600080fd5b34801561010457600080fd5b5061011f600480360381019061011a9190611eee565b61037a565b005b34801561012d57600080fd5b5061014860048036038101906101439190611f79565b6108d0565b6040516101589493929190611fb5565b60405180910390f35b34801561016d57600080fd5b5061018860048036038101906101839190611eee565b610900565b005b34801561019657600080fd5b506101b160048036038101906101ac9190611f79565b610a91565b6040516101be9190611ffa565b60405180910390f35b3480156101d357600080fd5b506101dc610add565b005b3480156101ea57600080fd5b506101f3610f4c565b005b34801561020157600080fd5b5061021c60048036038101906102179190611f79565b61123f565b6040516102299190611ffa565b60405180910390f35b34801561023e57600080fd5b506102476113d9565b6040516102549190611ffa565b60405180910390f35b34801561026957600080fd5b506102726113df565b005b34801561028057600080fd5b5061029b60048036038101906102969190611eee565b6113f3565b005b3480156102a957600080fd5b506102b26114f5565b6040516102bf9190612024565b60405180910390f35b3480156102d457600080fd5b506102ef60048036038101906102ea9190611f79565b61151e565b005b6102f9611687565b005b34801561030757600080fd5b50610310611cae565b60405161031d919061209e565b60405180910390f35b34801561033257600080fd5b5061033b611cd4565b6040516103489190611ffa565b60405180910390f35b34801561035d57600080fd5b5061037860048036038101906103739190611f79565b611cda565b005b6000600360003373ffffffffffffffffffffffffffffffffffffffff1673ffffffffffffffffffffffffffffffffffffffff16815260200190815260200160002060000154905081811015610404576040517f08c379a00000000000000000000000000000000000000000000000000000000081526004016103fb90612116565b60405180910390fd5b60008211610447576040517f08c379a000000000000000000000000000000000000000000000000000000000815260040161043e90612182565b60405180910390fd5b60006104523361123f565b90506000811180156104ff575080600160009054906101000a900473ffffffffffffffffffffffffffffffffffffffff1673ffffffffffffffffffffffffffffffffffffffff166370a08231306040518263ffffffff1660e01b81526004016104bb9190612024565b602060405180830381865afa1580156104d8573d6000803e3d6000fd5b505050506040513d601f19601f820116820180604052508101906104fc91906121b7565b10155b156105f4573373ffffffffffffffffffffffffffffffffffffffff167fc04825ba3f383b602255d2a13065a68e325c65c9e0ed5d031ea2b06f641873af8260405161054a9190611ffa565b60405180910390a2600160009054906101000a900473ffffffffffffffffffffffffffffffffffffffff1673ffffffffffffffffffffffffffffffffffffffff1663a9059cbb33836040518363ffffffff1660e01b81526004016105af9291906121e4565b6020604051808303816000875af11580156105ce573d6000803e3d6000fd5b505050506040513d601f19601f820116820180604052508101906105f29190612245565b505b82600360003373ffffffffffffffffffffffffffffffffffffffff1673ffffffffffffffffffffffffffffffffffffffff168152602001908152602001600020600001600082825461064691906122a1565b9250508190555042600360003373ffffffffffffffffffffffffffffffffffffffff1673ffffffffffffffffffffffffffffffffffffffff168152602001908152602001600020600101819055506000600360003373ffffffffffffffffffffffffffffffffffffffff1673ffffffffffffffffffffffffffffffffffffffff168152602001908152602001600020600301819055506000600360003373ffffffffffffffffffffffffffffffffffffffff1673ffffffffffffffffffffffffffffffffffffffff16815260200190815260200160002060000154036107b7576000600360003373ffffffffffffffffffffffffffffffffffffffff1673ffffffffffffffffffffffffffffffffffffffff168152602001908152602001600020600101819055506000600360003373ffffffffffffffffffffffffffffffffffffffff1673ffffffffffffffffffffffffffffffffffffffff168152602001908152602001600020600201819055505b82600460008282546107c991906122a1565b925050819055503373ffffffffffffffffffffffffffffffffffffffff167f7084f5476618d8e60b11ef0d7d3f06914655adb8793e28ff7f018d4c76d505d5846040516108169190611ffa565b60405180910390a260003373ffffffffffffffffffffffffffffffffffffffff168460405161084490612306565b60006040518083038185875af1925050503d8060008114610881576040519150601f19603f3d011682016040523d82523d6000602084013e610886565b606091505b50509050806108ca576040517f08c379a00000000000000000000000000000000000000000000000000000000081526004016108c190612367565b60405180910390fd5b50505050565b60036020528060005260406000206000915090508060000154908060010154908060020154908060030154905084565b610908611d60565b80600160009054906101000a900473ffffffffffffffffffffffffffffffffffffffff1673ffffffffffffffffffffffffffffffffffffffff166370a08231306040518263ffffffff1660e01b81526004016109649190612024565b602060405180830381865afa158015610981573d6000803e3d6000fd5b505050506040513d601f19601f820116820180604052508101906109a591906121b7565b10156109e6576040517f08c379a00000000000000000000000000000000000000000000000000000000081526004016109dd906123d3565b60405180910390fd5b600160009054906101000a900473ffffffffffffffffffffffffffffffffffffffff1673ffffffffffffffffffffffffffffffffffffffff1663a9059cbb610a2c6114f5565b836040518363ffffffff1660e01b8152600401610a4a9291906121e4565b6020604051808303816000875af1158015610a69573d6000803e3d6000fd5b505050506040513d601f19601f82011682018060405250810190610a8d9190612245565b5050565b6000600360008373ffffffffffffffffffffffffffffffffffffffff1673ffffffffffffffffffffffffffffffffffffffff168152602001908152602001600020600001549050919050565b6000600360003373ffffffffffffffffffffffffffffffffffffffff1673ffffffffffffffffffffffffffffffffffffffff16815260200190815260200160002060000154905060008111610b67576040517f08c379a0000000000000000000000000000000000000000000000000000000008152600401610b5e9061243f565b60405180910390fd5b6000610b723361123f565b9050600081118015610c1f575080600160009054906101000a900473ffffffffffffffffffffffffffffffffffffffff1673ffffffffffffffffffffffffffffffffffffffff166370a08231306040518263ffffffff1660e01b8152600401610bdb9190612024565b602060405180830381865afa158015610bf8573d6000803e3d6000fd5b505050506040513d601f19601f82011682018060405250810190610c1c91906121b7565b10155b15610d14573373ffffffffffffffffffffffffffffffffffffffff167fc04825ba3f383b602255d2a13065a68e325c65c9e0ed5d031ea2b06f641873af82604051610c6a9190611ffa565b60405180910390a2600160009054906101000a900473ffffffffffffffffffffffffffffffffffffffff1673ffffffffffffffffffffffffffffffffffffffff1663a9059cbb33836040518363ffffffff1660e01b8152600401610ccf9291906121e4565b6020604051808303816000875af1158015610cee573d6000803e3d6000fd5b505050506040513d601f19601f82011682018060405250810190610d129190612245565b505b6000600360003373ffffffffffffffffffffffffffffffffffffffff1673ffffffffffffffffffffffffffffffffffffffff168152602001908152602001600020600001819055506000600360003373ffffffffffffffffffffffffffffffffffffffff1673ffffffffffffffffffffffffffffffffffffffff168152602001908152602001600020600101819055506000600360003373ffffffffffffffffffffffffffffffffffffffff1673ffffffffffffffffffffffffffffffffffffffff168152602001908152602001600020600201819055506000600360003373ffffffffffffffffffffffffffffffffffffffff1673ffffffffffffffffffffffffffffffffffffffff168152602001908152602001600020600301819055508160046000828254610e4691906122a1565b925050819055503373ffffffffffffffffffffffffffffffffffffffff167f7084f5476618d8e60b11ef0d7d3f06914655adb8793e28ff7f018d4c76d505d583604051610e939190611ffa565b60405180910390a260003373ffffffffffffffffffffffffffffffffffffffff1683604051610ec190612306565b60006040518083038185875af1925050503d8060008114610efe576040519150601f19603f3d011682016040523d82523d6000602084013e610f03565b606091505b5050905080610f47576040517f08c379a0000000000000000000000000000000000000000000000000000000008152600401610f3e906124ab565b60405180910390fd5b505050565b6000610f573361123f565b905060008111610f9c576040517f08c379a0000000000000000000000000000000000000000000000000000000008152600401610f9390612517565b60405180910390fd5b42600360003373ffffffffffffffffffffffffffffffffffffffff1673ffffffffffffffffffffffffffffffffffffffff168152602001908152602001600020600101819055506000600360003373ffffffffffffffffffffffffffffffffffffffff1673ffffffffffffffffffffffffffffffffffffffff1681526020019081526020016000206003018190555080600160009054906101000a900473ffffffffffffffffffffffffffffffffffffffff1673ffffffffffffffffffffffffffffffffffffffff166370a08231306040518263ffffffff1660e01b81526004016110879190612024565b602060405180830381865afa1580156110a4573d6000803e3d6000fd5b505050506040513d601f19601f820116820180604052508101906110c891906121b7565b1015611109576040517f08c379a0000000000000000000000000000000000000000000000000000000008152600401611100906125a9565b60405180910390fd5b3373ffffffffffffffffffffffffffffffffffffffff167fc04825ba3f383b602255d2a13065a68e325c65c9e0ed5d031ea2b06f641873af8260405161114f9190611ffa565b60405180910390a26000600160009054906101000a900473ffffffffffffffffffffffffffffffffffffffff1673ffffffffffffffffffffffffffffffffffffffff1663a9059cbb33846040518363ffffffff1660e01b81526004016111b69291906121e4565b6020604051808303816000875af11580156111d5573d6000803e3d6000fd5b505050506040513d601f19601f820116820180604052508101906111f99190612245565b90508061123b576040517f08c379a00000000000000000000000000000000000000000000000000000000081526004016112329061263b565b60405180910390fd5b5050565b600080600360008473ffffffffffffffffffffffffffffffffffffffff1673ffffffffffffffffffffffffffffffffffffffff16815260200190815260200160002060405180608001604052908160008201548152602001600182015481526020016002820154815260200160038201548152505090506000816000015114806112cd575060008160200151145b806112dc575060008160400151145b156112eb5760009150506113d4565b60008160200151426112fd91906122a1565b9050600082604001514261131191906122a1565b90506000600254905062127500821061133857600281611331919061265b565b905061138a565b62093a808210611362576064609682611351919061265b565b61135b91906126cc565b9050611389565b6203f480821061138857606460788261137b919061265b565b61138591906126cc565b90505b5b5b6000670de0b6b3a7640000828587600001516113a6919061265b565b6113b0919061265b565b6113ba91906126cc565b85606001516113c991906126fd565b905080955050505050505b919050565b60025481565b6113e7611d60565b6113f16000611de7565b565b6113fb611d60565b8047101561143e576040517f08c379a00000000000000000000000000000000000000000000000000000000081526004016114359061277d565b60405180910390fd5b60006114486114f5565b73ffffffffffffffffffffffffffffffffffffffff168260405161146b90612306565b60006040518083038185875af1925050503d80600081146114a8576040519150601f19603f3d011682016040523d82523d6000602084013e6114ad565b606091505b50509050806114f1576040517f08c379a00000000000000000000000000000000000000000000000000000000081526004016114e8906127e9565b60405180910390fd5b5050565b60008060009054906101000a900473ffffffffffffffffffffffffffffffffffffffff16905090565b611526611d60565b60008061016773ffffffffffffffffffffffffffffffffffffffff166349146bde60e01b308560405160240161155d929190612809565b604051602081830303815290604052907bffffffffffffffffffffffffffffffffffffffffffffffffffffffff19166020820180517bffffffffffffffffffffffffffffffffffffffffffffffffffffffff83818316178352505050506040516115c79190612898565b6000604051808303816000865af19150503d8060008114611604576040519150601f19603f3d011682016040523d82523d6000602084013e611609565b606091505b509150915060008261161c576016611631565b8180602001905181019061163091906128e8565b5b905060168160030b14806116425750825b611681576040517f08c379a000000000000000000000000000000000000000000000000000000000815260040161167890612961565b60405180910390fd5b50505050565b600034116116ca576040517f08c379a00000000000000000000000000000000000000000000000000000000081526004016116c1906129f3565b60405180910390fd5b6000600360003373ffffffffffffffffffffffffffffffffffffffff1673ffffffffffffffffffffffffffffffffffffffff1681526020019081526020016000206000015411156119535760006117203361123f565b90506000811180156117cd575080600160009054906101000a900473ffffffffffffffffffffffffffffffffffffffff1673ffffffffffffffffffffffffffffffffffffffff166370a08231306040518263ffffffff1660e01b81526004016117899190612024565b602060405180830381865afa1580156117a6573d6000803e3d6000fd5b505050506040513d601f19601f820116820180604052508101906117ca91906121b7565b10155b156119515742600360003373ffffffffffffffffffffffffffffffffffffffff1673ffffffffffffffffffffffffffffffffffffffff168152602001908152602001600020600101819055506000600360003373ffffffffffffffffffffffffffffffffffffffff1673ffffffffffffffffffffffffffffffffffffffff168152602001908152602001600020600301819055503373ffffffffffffffffffffffffffffffffffffffff167fc04825ba3f383b602255d2a13065a68e325c65c9e0ed5d031ea2b06f641873af826040516118a79190611ffa565b60405180910390a2600160009054906101000a900473ffffffffffffffffffffffffffffffffffffffff1673ffffffffffffffffffffffffffffffffffffffff1663a9059cbb33836040518363ffffffff1660e01b815260040161190c9291906121e4565b6020604051808303816000875af115801561192b573d6000803e3d6000fd5b505050506040513d601f19601f8201168201806040525081019061194f9190612245565b505b505b6000606434611962919061265b565b905080600360003373ffffffffffffffffffffffffffffffffffffffff1673ffffffffffffffffffffffffffffffffffffffff16815260200190815260200160002060030160008282546119b691906126fd565b925050819055506000600360003373ffffffffffffffffffffffffffffffffffffffff1673ffffffffffffffffffffffffffffffffffffffff1681526020019081526020016000206000015403611a535742600360003373ffffffffffffffffffffffffffffffffffffffff1673ffffffffffffffffffffffffffffffffffffffff16815260200190815260200160002060020181905550611ba4565b6000600360003373ffffffffffffffffffffffffffffffffffffffff1673ffffffffffffffffffffffffffffffffffffffff16815260200190815260200160002060000154600360003373ffffffffffffffffffffffffffffffffffffffff1673ffffffffffffffffffffffffffffffffffffffff16815260200190815260200160002060020154611ae5919061265b565b905060003442611af5919061265b565b905034600360003373ffffffffffffffffffffffffffffffffffffffff1673ffffffffffffffffffffffffffffffffffffffff16815260200190815260200160002060000154611b4591906126fd565b8183611b5191906126fd565b611b5b91906126cc565b600360003373ffffffffffffffffffffffffffffffffffffffff1673ffffffffffffffffffffffffffffffffffffffff1681526020019081526020016000206002018190555050505b34600360003373ffffffffffffffffffffffffffffffffffffffff1673ffffffffffffffffffffffffffffffffffffffff1681526020019081526020016000206000016000828254611bf691906126fd565b9250508190555042600360003373ffffffffffffffffffffffffffffffffffffffff1673ffffffffffffffffffffffffffffffffffffffff168152602001908152602001600020600101819055503460046000828254611c5691906126fd565b925050819055503373ffffffffffffffffffffffffffffffffffffffff167f2da466a7b24304f47e87fa2e1e5a81b9831ce54fec19055ce277ca2f39ba42c434604051611ca39190611ffa565b60405180910390a250565b600160009054906101000a900473ffffffffffffffffffffffffffffffffffffffff1681565b60045481565b611ce2611d60565b600073ffffffffffffffffffffffffffffffffffffffff168173ffffffffffffffffffffffffffffffffffffffff1603611d545760006040517f1e4fbdf7000000000000000000000000000000000000000000000000000000008152600401611d4b9190612024565b60405180910390fd5b611d5d81611de7565b50565b611d68611eab565b73ffffffffffffffffffffffffffffffffffffffff16611d866114f5565b73ffffffffffffffffffffffffffffffffffffffff1614611de557611da9611eab565b6040517f118cdaa7000000000000000000000000000000000000000000000000000000008152600401611ddc9190612024565b60405180910390fd5b565b60008060009054906101000a900473ffffffffffffffffffffffffffffffffffffffff169050816000806101000a81548173ffffffffffffffffffffffffffffffffffffffff021916908373ffffffffffffffffffffffffffffffffffffffff1602179055508173ffffffffffffffffffffffffffffffffffffffff168173ffffffffffffffffffffffffffffffffffffffff167f8be0079c531659141344cd1fd0a4f28419497f9722a3daafe3b4186f6b6457e060405160405180910390a35050565b600033905090565b600080fd5b6000819050919050565b611ecb81611eb8565b8114611ed657600080fd5b50565b600081359050611ee881611ec2565b92915050565b600060208284031215611f0457611f03611eb3565b5b6000611f1284828501611ed9565b91505092915050565b600073ffffffffffffffffffffffffffffffffffffffff82169050919050565b6000611f4682611f1b565b9050919050565b611f5681611f3b565b8114611f6157600080fd5b50565b600081359050611f7381611f4d565b92915050565b600060208284031215611f8f57611f8e611eb3565b5b6000611f9d84828501611f64565b91505092915050565b611faf81611eb8565b82525050565b6000608082019050611fca6000830187611fa6565b611fd76020830186611fa6565b611fe46040830185611fa6565b611ff16060830184611fa6565b95945050505050565b600060208201905061200f6000830184611fa6565b92915050565b61201e81611f3b565b82525050565b60006020820190506120396000830184612015565b92915050565b6000819050919050565b600061206461205f61205a84611f1b565b61203f565b611f1b565b9050919050565b600061207682612049565b9050919050565b60006120888261206b565b9050919050565b6120988161207d565b82525050565b60006020820190506120b3600083018461208f565b92915050565b600082825260208201905092915050565b7f496e73756666696369656e74207374616b65642062616c616e63650000000000600082015250565b6000612100601b836120b9565b915061210b826120ca565b602082019050919050565b6000602082019050818103600083015261212f816120f3565b9050919050565b7f416d6f756e74206d7573742062652067726561746572207468616e207a65726f600082015250565b600061216c6020836120b9565b915061217782612136565b602082019050919050565b6000602082019050818103600083015261219b8161215f565b9050919050565b6000815190506121b181611ec2565b92915050565b6000602082840312156121cd576121cc611eb3565b5b60006121db848285016121a2565b91505092915050565b60006040820190506121f96000830185612015565b6122066020830184611fa6565b9392505050565b60008115159050919050565b6122228161220d565b811461222d57600080fd5b50565b60008151905061223f81612219565b92915050565b60006020828403121561225b5761225a611eb3565b5b600061226984828501612230565b91505092915050565b7f4e487b7100000000000000000000000000000000000000000000000000000000600052601160045260246000fd5b60006122ac82611eb8565b91506122b783611eb8565b92508282039050818111156122cf576122ce612272565b5b92915050565b600081905092915050565b50565b60006122f06000836122d5565b91506122fb826122e0565b600082019050919050565b6000612311826122e3565b9150819050919050565b7f5769746864726177616c207472616e73666572206661696c6564000000000000600082015250565b6000612351601a836120b9565b915061235c8261231b565b602082019050919050565b6000602082019050818103600083015261238081612344565b9050919050565b7f4e6f7420656e6f75676820504c415920696e2074686520636f6e74726163742e600082015250565b60006123bd6020836120b9565b91506123c882612387565b602082019050919050565b600060208201905081810360008301526123ec816123b0565b9050919050565b7f4e6f2062616c616e636520746f20776974686472617700000000000000000000600082015250565b60006124296016836120b9565b9150612434826123f3565b602082019050919050565b600060208201905081810360008301526124588161241c565b9050919050565b7f5472616e73666572206661696c65640000000000000000000000000000000000600082015250565b6000612495600f836120b9565b91506124a08261245f565b602082019050919050565b600060208201905081810360008301526124c481612488565b9050919050565b7f4e6f207969656c6420746f20636c61696d000000000000000000000000000000600082015250565b60006125016011836120b9565b915061250c826124cb565b602082019050919050565b60006020820190508181036000830152612530816124f4565b9050919050565b7f5661756c742068617320696e73756666696369656e7420504c4159207265736560008201527f7276650000000000000000000000000000000000000000000000000000000000602082015250565b60006125936023836120b9565b915061259e82612537565b604082019050919050565b600060208201905081810360008301526125c281612586565b9050919050565b7f5969656c64207472616e73666572206661696c65642e2041726520796f75206160008201527f73736f6369617465643f00000000000000000000000000000000000000000000602082015250565b6000612625602a836120b9565b9150612630826125c9565b604082019050919050565b6000602082019050818103600083015261265481612618565b9050919050565b600061266682611eb8565b915061267183611eb8565b925082820261267f81611eb8565b9150828204841483151761269657612695612272565b5b5092915050565b7f4e487b7100000000000000000000000000000000000000000000000000000000600052601260045260246000fd5b60006126d782611eb8565b91506126e283611eb8565b9250826126f2576126f161269d565b5b828204905092915050565b600061270882611eb8565b915061271383611eb8565b925082820190508082111561272b5761272a612272565b5b92915050565b7f4e6f7420656e6f756768204842415220696e2074686520636f6e74726163742e600082015250565b60006127676020836120b9565b915061277282612731565b602082019050919050565b600060208201905081810360008301526127968161275a565b9050919050565b7f41646d696e207472616e73666572206661696c65640000000000000000000000600082015250565b60006127d36015836120b9565b91506127de8261279d565b602082019050919050565b60006020820190508181036000830152612802816127c6565b9050919050565b600060408201905061281e6000830185612015565b61282b6020830184612015565b9392505050565b600081519050919050565b60005b8381101561285b578082015181840152602081019050612840565b60008484015250505050565b600061287282612832565b61287c81856122d5565b935061288c81856020860161283d565b80840191505092915050565b60006128a48284612867565b915081905092915050565b60008160030b9050919050565b6128c5816128af565b81146128d057600080fd5b50565b6000815190506128e2816128bc565b92915050565b6000602082840312156128fe576128fd611eb3565b5b600061290c848285016128d3565b91505092915050565b7f4d616e75616c206173736f63696174696f6e206661696c656400000000000000600082015250565b600061294b6019836120b9565b915061295682612915565b602082019050919050565b6000602082019050818103600083015261297a8161293e565b9050919050565b7f4465706f73697420616d6f756e74206d7573742062652067726561746572207460008201527f68616e207a65726f000000000000000000000000000000000000000000000000602082015250565b60006129dd6028836120b9565b91506129e882612981565b604082019050919050565b60006020820190508181036000830152612a0c816129d0565b905091905056fea26469706673582212200d8464b8702205dafac36528a16bc5bb89a2ceac01d29a16e43f6ac1a2a89c0164736f6c63430008140033",
  "linkReferences": {},
  "deployedLinkReferences": {}
}