{
  "_format": "hh3-artifact-1",
  "contractName": "PlayFiGames",
  "sourceName": "contracts/PlayFiGames.sol",
  "abi": [
    {
      "inputs": [
        {
          "internalType": "address",
          "name": "_vault",
          "type": "address"
        }
      ],
      "stateMutability": "nonpayable",
      "type": "constructor"
    },
    {
      "anonymous": false,
      "inputs": [
        {
          "indexed": true,
          "internalType": "address",
          "name": "user",
          "type": "address"
        },
        {
          "indexed": false,
          "internalType": "uint256",
          "name": "payout",
          "type": "uint256"
        }
      ],
      "name": "MinesCashout",
      "type": "event"
    },
    {
      "anonymous": false,
      "inputs": [
        {
          "indexed": true,
          "internalType": "address",
          "name": "user",
          "type": "address"
        },
        {
          "indexed": false,
          "internalType": "uint256",
          "name": "tileIndex",
          "type": "uint256"
        },
        {
          "indexed": false,
          "internalType": "bool",
          "name": "isMine",
          "type": "bool"
        }
      ],
      "name": "MinesRevealed",
      "type": "event"
    },
    {
      "anonymous": false,
      "inputs": [
        {
          "indexed": true,
          "internalType": "address",
          "name": "user",
          "type": "address"
        },
        {
          "indexed": false,
          "internalType": "uint256",
          "name": "bet",
          "type": "uint256"
        },
        {
          "indexed": false,
          "internalType": "uint256",
          "name": "minesCount",
          "type": "uint256"
        }
      ],
      "name": "MinesStarted",
      "type": "event"
    },
    {
      "anonymous": false,
      "inputs": [
        {
          "indexed": true,
          "internalType": "address",
          "name": "user",
          "type": "address"
        },
        {
          "indexed": false,
          "internalType": "uint256",
          "name": "bet",
          "type": "uint256"
        },
        {
          "indexed": false,
          "internalType": "uint256",
          "name": "multiplier",
          "type": "uint256"
        },
        {
          "indexed": false,
          "internalType": "uint256",
          "name": "winAmount",
          "type": "uint256"
        }
      ],
      "name": "SpinPlayed",
      "type": "event"
    },
    {
      "inputs": [
        {
          "internalType": "address",
          "name": "",
          "type": "address"
        }
      ],
      "name": "activeMinesGames",
      "outputs": [
        {
          "internalType": "uint256",
          "name": "betAmount",
          "type": "uint256"
        },
        {
          "internalType": "uint256",
          "name": "minesCount",
          "type": "uint256"
        },
        {
          "internalType": "uint256",
          "name": "revealedCount",
          "type": "uint256"
        },
        {
          "internalType": "uint256",
          "name": "seed",
          "type": "uint256"
        },
        {
          "internalType": "bool",
          "name": "active",
          "type": "bool"
        }
      ],
      "stateMutability": "view",
      "type": "function"
    },
    {
      "inputs": [
        {
          "internalType": "uint256",
          "name": "bet",
          "type": "uint256"
        },
        {
          "internalType": "uint256",
          "name": "mines",
          "type": "uint256"
        },
        {
          "internalType": "uint256",
          "name": "revealed",
          "type": "uint256"
        }
      ],
      "name": "calculateMinesPayout",
      "outputs": [
        {
          "internalType": "uint256",
          "name": "",
          "type": "uint256"
        }
      ],
      "stateMutability": "pure",
      "type": "function"
    },
    {
      "inputs": [],
      "name": "cashoutMines",
      "outputs": [],
      "stateMutability": "nonpayable",
      "type": "function"
    },
    {
      "inputs": [],
      "name": "owner",
      "outputs": [
        {
          "internalType": "address",
          "name": "",
          "type": "address"
        }
      ],
      "stateMutability": "view",
      "type": "function"
    },
    {
      "inputs": [
        {
          "internalType": "uint256",
          "name": "amount",
          "type": "uint256"
        }
      ],
      "name": "playSpin",
      "outputs": [],
      "stateMutability": "nonpayable",
      "type": "function"
    },
    {
      "inputs": [
        {
          "internalType": "uint256",
          "name": "tileIndex",
          "type": "uint256"
        }
      ],
      "name": "revealTile",
      "outputs": [],
      "stateMutability": "nonpayable",
      "type": "function"
    },
    {
      "inputs": [
        {
          "internalType": "uint256",
          "name": "",
          "type": "uint256"
        }
      ],
      "name": "spinMultipliers",
      "outputs": [
        {
          "internalType": "uint256",
          "name": "",
          "type": "uint256"
        }
      ],
      "stateMutability": "view",
      "type": "function"
    },
    {
      "inputs": [
        {
          "internalType": "uint256",
          "name": "minesCount",
          "type": "uint256"
        },
        {
          "internalType": "uint256",
          "name": "amount",
          "type": "uint256"
        }
      ],
      "name": "startMines",
      "outputs": [],
      "stateMutability": "nonpayable",
      "type": "function"
    },
    {
      "inputs": [],
      "name": "vault",
      "outputs": [
        {
          "internalType": "contract IVault",
          "name": "",
          "type": "address"
        }
      ],
      "stateMutability": "view",
      "type": "function"
    }
  ],
  "bytecode": "0x6080604052604051806104800160405280600160ff168152602001600260ff168152602001600160ff168152602001600460ff168152602001600160ff168152602001600260ff168152602001600160ff168152602001600560ff168152602001600160ff168152602001600260ff168152602001600160ff168152602001600460ff168152602001600160ff168152602001600260ff168152602001600160ff168152602001600a60ff168152602001600160ff168152602001600260ff168152602001600160ff168152602001600460ff168152602001600160ff168152602001600260ff168152602001600160ff168152602001600560ff168152602001600160ff168152602001600260ff168152602001600160ff168152602001600460ff168152602001600160ff168152602001600260ff168152602001600160ff168152602001601460ff168152602001600160ff168152602001600260ff168152602001600160ff168152602001602860ff1681525060029060246200018892919062000241565b5034801562000195575f80fd5b50604051620019eb380380620019eb8339818101604052810190620001bb919062000318565b805f806101000a81548173ffffffffffffffffffffffffffffffffffffffff021916908373ffffffffffffffffffffffffffffffffffffffff1602179055503360015f6101000a81548173ffffffffffffffffffffffffffffffffffffffff021916908373ffffffffffffffffffffffffffffffffffffffff1602179055505062000348565b828054828255905f5260205f2090810192821562000283579160200282015b8281111562000282578251829060ff1690559160200191906001019062000260565b5b50905062000292919062000296565b5090565b5b80821115620002af575f815f90555060010162000297565b5090565b5f80fd5b5f73ffffffffffffffffffffffffffffffffffffffff82169050919050565b5f620002e282620002b7565b9050919050565b620002f481620002d6565b8114620002ff575f80fd5b50565b5f815190506200031281620002e9565b92915050565b5f6020828403121562000330576200032f620002b3565b5b5f6200033f8482850162000302565b91505092915050565b61169580620003565f395ff3fe608060405234801561000f575f80fd5b5060043610610091575f3560e01c80638da5cb5b116100645780638da5cb5b1461011f5780638e6e5f151461013d578063b900d7061461016d578063f755becd14610189578063fbfa77cf146101a557610091565b806317bad57c146100955780632367bad41461009f5780632dfe5d24146100bb57806337567980146100ef575b5f80fd5b61009d6101c3565b005b6100b960048036038101906100b49190610d53565b6103ab565b005b6100d560048036038101906100d09190610deb565b610691565b6040516100e6959493929190610e3f565b60405180910390f35b61010960048036038101906101049190610e90565b6106cf565b6040516101169190610ebb565b60405180910390f35b6101276106ef565b6040516101349190610ee3565b60405180910390f35b61015760048036038101906101529190610efc565b610714565b6040516101649190610ebb565b60405180910390f35b61018760048036038101906101829190610e90565b610780565b005b6101a3600480360381019061019e9190610e90565b610a2d565b005b6101ad610cf9565b6040516101ba9190610fa7565b60405180910390f35b5f60035f3373ffffffffffffffffffffffffffffffffffffffff1673ffffffffffffffffffffffffffffffffffffffff1681526020019081526020015f209050806004015f9054906101000a900460ff16610253576040517f08c379a000000000000000000000000000000000000000000000000000000000815260040161024a9061101a565b60405180910390fd5b5f816002015411610299576040517f08c379a0000000000000000000000000000000000000000000000000000000008152600401610290906110a8565b60405180910390fd5b5f6102b0825f015483600101548460020154610714565b90505f8054906101000a900473ffffffffffffffffffffffffffffffffffffffff1673ffffffffffffffffffffffffffffffffffffffff16633f92b5623383855f01546040518463ffffffff1660e01b8152600401610311939291906110c6565b5f604051808303815f87803b158015610328575f80fd5b505af115801561033a573d5f803e3d5ffd5b505050505f826004015f6101000a81548160ff0219169083151502179055503373ffffffffffffffffffffffffffffffffffffffff167f6b03e1b424bf25cec19c61ea41f56f3a24af6f6b9cb4ede8516463beca4b47b38260405161039f9190610ebb565b60405180910390a25050565b600182101580156103bd575060188211155b6103fc576040517f08c379a00000000000000000000000000000000000000000000000000000000081526004016103f390611145565b60405180910390fd5b805f8054906101000a900473ffffffffffffffffffffffffffffffffffffffff1673ffffffffffffffffffffffffffffffffffffffff166326224c64336040518263ffffffff1660e01b81526004016104559190610ee3565b602060405180830381865afa158015610470573d5f803e3d5ffd5b505050506040513d601f19601f820116820180604052508101906104949190611177565b10156104d5576040517f08c379a00000000000000000000000000000000000000000000000000000000081526004016104cc90611212565b60405180910390fd5b60035f3373ffffffffffffffffffffffffffffffffffffffff1673ffffffffffffffffffffffffffffffffffffffff1681526020019081526020015f206004015f9054906101000a900460ff1615610562576040517f08c379a00000000000000000000000000000000000000000000000000000000081526004016105599061127a565b60405180910390fd5b6040518060a001604052808281526020018381526020015f8152602001444233604051602001610594939291906112fd565b604051602081830303815290604052805190602001205f1c81526020016001151581525060035f3373ffffffffffffffffffffffffffffffffffffffff1673ffffffffffffffffffffffffffffffffffffffff1681526020019081526020015f205f820151815f01556020820151816001015560408201518160020155606082015181600301556080820151816004015f6101000a81548160ff0219169083151502179055509050503373ffffffffffffffffffffffffffffffffffffffff167fb19050f43a9c05aa4737c6c9f7d0296675000596523ad8f2c19a1c88cabe6f028284604051610685929190611339565b60405180910390a25050565b6003602052805f5260405f205f91509050805f015490806001015490806002015490806003015490806004015f9054906101000a900460ff16905085565b600281815481106106de575f80fd5b905f5260205f20015f915090505481565b60015f9054906101000a900473ffffffffffffffffffffffffffffffffffffffff1681565b5f80606490505f5b8381101561075d57846019610731919061138d565b60198361073e91906113c0565b610748919061142e565b915080806107559061145e565b91505061071c565b506064818661076c91906113c0565b610776919061142e565b9150509392505050565b5f60035f3373ffffffffffffffffffffffffffffffffffffffff1673ffffffffffffffffffffffffffffffffffffffff1681526020019081526020015f209050806004015f9054906101000a900460ff16610810576040517f08c379a00000000000000000000000000000000000000000000000000000000081526004016108079061101a565b60405180910390fd5b60198210610853576040517f08c379a000000000000000000000000000000000000000000000000000000000815260040161084a906114ef565b60405180910390fd5b5f8160010154601983600301548560405160200161087292919061150d565b604051602081830303815290604052805190602001205f1c6108949190611538565b109050801561099a575f8054906101000a900473ffffffffffffffffffffffffffffffffffffffff1673ffffffffffffffffffffffffffffffffffffffff16633f92b562335f855f01546040518463ffffffff1660e01b81526004016108fc939291906115a1565b5f604051808303815f87803b158015610913575f80fd5b505af1158015610925573d5f803e3d5ffd5b505050505f826004015f6101000a81548160ff0219169083151502179055503373ffffffffffffffffffffffffffffffffffffffff167f0744557e18ed8a2bcb327be7e2377ac1125f34922e632865c2feac2d1ebe830184600160405161098d9291906115d6565b60405180910390a2610a28565b816002015f8154809291906109ae9061145e565b91905055503373ffffffffffffffffffffffffffffffffffffffff167f0744557e18ed8a2bcb327be7e2377ac1125f34922e632865c2feac2d1ebe8301845f6040516109fb9291906115d6565b60405180910390a281600101546019610a14919061138d565b826002015403610a2757610a266101c3565b5b5b505050565b805f8054906101000a900473ffffffffffffffffffffffffffffffffffffffff1673ffffffffffffffffffffffffffffffffffffffff166326224c64336040518263ffffffff1660e01b8152600401610a869190610ee3565b602060405180830381865afa158015610aa1573d5f803e3d5ffd5b505050506040513d601f19601f82011682018060405250810190610ac59190611177565b1015610b06576040517f08c379a0000000000000000000000000000000000000000000000000000000008152600401610afd90611212565b60405180910390fd5b5f6024444233604051602001610b1e939291906112fd565b604051602081830303815290604052805190602001205f1c610b409190611538565b90505f60028281548110610b5757610b566115fd565b5b905f5260205f20015490505f8184610b6f91906113c0565b90506001821115610c08575f8054906101000a900473ffffffffffffffffffffffffffffffffffffffff1673ffffffffffffffffffffffffffffffffffffffff16633f92b5623383876040518463ffffffff1660e01b8152600401610bd6939291906110c6565b5f604051808303815f87803b158015610bed575f80fd5b505af1158015610bff573d5f803e3d5ffd5b50505050610ca1565b6001821015610c9f575f8054906101000a900473ffffffffffffffffffffffffffffffffffffffff1673ffffffffffffffffffffffffffffffffffffffff16633f92b562335f876040518463ffffffff1660e01b8152600401610c6d939291906115a1565b5f604051808303815f87803b158015610c84575f80fd5b505af1158015610c96573d5f803e3d5ffd5b50505050610ca0565b5b5b3373ffffffffffffffffffffffffffffffffffffffff167fb39f028f6e6dc78905a4a522f864d6c14a6f40353ac3250bd7442254cab1d2df858484604051610ceb9392919061162a565b60405180910390a250505050565b5f8054906101000a900473ffffffffffffffffffffffffffffffffffffffff1681565b5f80fd5b5f819050919050565b610d3281610d20565b8114610d3c575f80fd5b50565b5f81359050610d4d81610d29565b92915050565b5f8060408385031215610d6957610d68610d1c565b5b5f610d7685828601610d3f565b9250506020610d8785828601610d3f565b9150509250929050565b5f73ffffffffffffffffffffffffffffffffffffffff82169050919050565b5f610dba82610d91565b9050919050565b610dca81610db0565b8114610dd4575f80fd5b50565b5f81359050610de581610dc1565b92915050565b5f60208284031215610e0057610dff610d1c565b5b5f610e0d84828501610dd7565b91505092915050565b610e1f81610d20565b82525050565b5f8115159050919050565b610e3981610e25565b82525050565b5f60a082019050610e525f830188610e16565b610e5f6020830187610e16565b610e6c6040830186610e16565b610e796060830185610e16565b610e866080830184610e30565b9695505050505050565b5f60208284031215610ea557610ea4610d1c565b5b5f610eb284828501610d3f565b91505092915050565b5f602082019050610ece5f830184610e16565b92915050565b610edd81610db0565b82525050565b5f602082019050610ef65f830184610ed4565b92915050565b5f805f60608486031215610f1357610f12610d1c565b5b5f610f2086828701610d3f565b9350506020610f3186828701610d3f565b9250506040610f4286828701610d3f565b9150509250925092565b5f819050919050565b5f610f6f610f6a610f6584610d91565b610f4c565b610d91565b9050919050565b5f610f8082610f55565b9050919050565b5f610f9182610f76565b9050919050565b610fa181610f87565b82525050565b5f602082019050610fba5f830184610f98565b92915050565b5f82825260208201905092915050565b7f506c617946693a204e6f206163746976652067616d65000000000000000000005f82015250565b5f611004601683610fc0565b915061100f82610fd0565b602082019050919050565b5f6020820190508181035f83015261103181610ff8565b9050919050565b7f506c617946693a204d7573742072657665616c206174206c65617374206f6e655f8201527f2074696c65000000000000000000000000000000000000000000000000000000602082015250565b5f611092602583610fc0565b915061109d82611038565b604082019050919050565b5f6020820190508181035f8301526110bf81611086565b9050919050565b5f6060820190506110d95f830186610ed4565b6110e66020830185610e16565b6110f36040830184610e16565b949350505050565b7f506c617946693a20496e76616c6964206d696e657320636f756e7400000000005f82015250565b5f61112f601b83610fc0565b915061113a826110fb565b602082019050919050565b5f6020820190508181035f83015261115c81611123565b9050919050565b5f8151905061117181610d29565b92915050565b5f6020828403121561118c5761118b610d1c565b5b5f61119984828501611163565b91505092915050565b7f506c617946693a20496e73756666696369656e74207661756c742062616c616e5f8201527f6365000000000000000000000000000000000000000000000000000000000000602082015250565b5f6111fc602283610fc0565b9150611207826111a2565b604082019050919050565b5f6020820190508181035f830152611229816111f0565b9050919050565b7f506c617946693a2047616d6520616c72656164792061637469766500000000005f82015250565b5f611264601b83610fc0565b915061126f82611230565b602082019050919050565b5f6020820190508181035f83015261129181611258565b9050919050565b5f819050919050565b6112b26112ad82610d20565b611298565b82525050565b5f8160601b9050919050565b5f6112ce826112b8565b9050919050565b5f6112df826112c4565b9050919050565b6112f76112f282610db0565b6112d5565b82525050565b5f61130882866112a1565b60208201915061131882856112a1565b60208201915061132882846112e6565b601482019150819050949350505050565b5f60408201905061134c5f830185610e16565b6113596020830184610e16565b9392505050565b7f4e487b71000000000000000000000000000000000000000000000000000000005f52601160045260245ffd5b5f61139782610d20565b91506113a283610d20565b92508282039050818111156113ba576113b9611360565b5b92915050565b5f6113ca82610d20565b91506113d583610d20565b92508282026113e381610d20565b915082820484148315176113fa576113f9611360565b5b5092915050565b7f4e487b71000000000000000000000000000000000000000000000000000000005f52601260045260245ffd5b5f61143882610d20565b915061144383610d20565b92508261145357611452611401565b5b828204905092915050565b5f61146882610d20565b91507fffffffffffffffffffffffffffffffffffffffffffffffffffffffffffffffff820361149a57611499611360565b5b600182019050919050565b7f506c617946693a20496e76616c69642074696c650000000000000000000000005f82015250565b5f6114d9601483610fc0565b91506114e4826114a5565b602082019050919050565b5f6020820190508181035f830152611506816114cd565b9050919050565b5f61151882856112a1565b60208201915061152882846112a1565b6020820191508190509392505050565b5f61154282610d20565b915061154d83610d20565b92508261155d5761155c611401565b5b828206905092915050565b5f819050919050565b5f61158b61158661158184611568565b610f4c565b610d20565b9050919050565b61159b81611571565b82525050565b5f6060820190506115b45f830186610ed4565b6115c16020830185611592565b6115ce6040830184610e16565b949350505050565b5f6040820190506115e95f830185610e16565b6115f66020830184610e30565b9392505050565b7f4e487b71000000000000000000000000000000000000000000000000000000005f52603260045260245ffd5b5f60608201905061163d5f830186610e16565b61164a6020830185610e16565b6116576040830184610e16565b94935050505056fea2646970667358221220680a16566de01dd79a36645457f555700ef7a07c3971ac1258772dbe30e53ddf64736f6c63430008140033",
  "linkReferences": {},
  "deployedLinkReferences": {},
  "immutableReferences": {},
  "inputSourceName": "project/contracts/PlayFiGames.sol",
  "buildInfoId": "solc-0_8_20-716cba37d966ed315aa86d12225d9d789e7cff1e"
}