{
  "_format": "hh3-artifact-1",
  "contractName": "PlayFiGames",
  "sourceName": "contracts/PlayFiGames.sol",
  "abi": [
    {
      "inputs": [
        {
          "internalType": "address",
          "name": "_vault",
          "type": "address"
        }
      ],
      "stateMutability": "nonpayable",
      "type": "constructor"
    },
    {
      "anonymous": false,
      "inputs": [
        {
          "indexed": true,
          "internalType": "address",
          "name": "user",
          "type": "address"
        },
        {
          "indexed": false,
          "internalType": "string",
          "name": "game",
          "type": "string"
        },
        {
          "indexed": false,
          "internalType": "uint256",
          "name": "amount",
          "type": "uint256"
        }
      ],
      "name": "BetPlaced",
      "type": "event"
    },
    {
      "inputs": [],
      "name": "owner",
      "outputs": [
        {
          "internalType": "address",
          "name": "",
          "type": "address"
        }
      ],
      "stateMutability": "view",
      "type": "function"
    },
    {
      "inputs": [
        {
          "internalType": "string",
          "name": "game",
          "type": "string"
        }
      ],
      "name": "placeBet",
      "outputs": [],
      "stateMutability": "payable",
      "type": "function"
    },
    {
      "inputs": [],
      "name": "vault",
      "outputs": [
        {
          "internalType": "contract IVault",
          "name": "",
          "type": "address"
        }
      ],
      "stateMutability": "view",
      "type": "function"
    }
  ],
  "bytecode": "0x608060405234801561000f575f80fd5b5060405161073038038061073083398181016040528101906100319190610114565b805f806101000a81548173ffffffffffffffffffffffffffffffffffffffff021916908373ffffffffffffffffffffffffffffffffffffffff1602179055503360015f6101000a81548173ffffffffffffffffffffffffffffffffffffffff021916908373ffffffffffffffffffffffffffffffffffffffff1602179055505061013f565b5f80fd5b5f73ffffffffffffffffffffffffffffffffffffffff82169050919050565b5f6100e3826100ba565b9050919050565b6100f3816100d9565b81146100fd575f80fd5b50565b5f8151905061010e816100ea565b92915050565b5f60208284031215610129576101286100b6565b5b5f61013684828501610100565b91505092915050565b6105e48061014c5f395ff3fe608060405260043610610033575f3560e01c80638da5cb5b1461003757806397bfeb8814610061578063fbfa77cf1461007d575b5f80fd5b348015610042575f80fd5b5061004b6100a7565b604051610058919061023f565b60405180910390f35b61007b600480360381019061007691906103a5565b6100cc565b005b348015610088575f80fd5b506100916101dd565b60405161009e9190610447565b60405180910390f35b60015f9054906101000a900473ffffffffffffffffffffffffffffffffffffffff1681565b5f341161010e576040517f08c379a0000000000000000000000000000000000000000000000000000000008152600401610105906104e0565b60405180910390fd5b5f8054906101000a900473ffffffffffffffffffffffffffffffffffffffff1673ffffffffffffffffffffffffffffffffffffffff166320845c1a346040518263ffffffff1660e01b81526004015f604051808303818588803b158015610173575f80fd5b505af1158015610185573d5f803e3d5ffd5b50505050503373ffffffffffffffffffffffffffffffffffffffff167fed9e8d4ee7cb095e0673cd5e842e9fe8038df3e3d8b2f35cd251b1940ae6a14282346040516101d2929190610580565b60405180910390a250565b5f8054906101000a900473ffffffffffffffffffffffffffffffffffffffff1681565b5f73ffffffffffffffffffffffffffffffffffffffff82169050919050565b5f61022982610200565b9050919050565b6102398161021f565b82525050565b5f6020820190506102525f830184610230565b92915050565b5f604051905090565b5f80fd5b5f80fd5b5f80fd5b5f80fd5b5f601f19601f8301169050919050565b7f4e487b71000000000000000000000000000000000000000000000000000000005f52604160045260245ffd5b6102b782610271565b810181811067ffffffffffffffff821117156102d6576102d5610281565b5b80604052505050565b5f6102e8610258565b90506102f482826102ae565b919050565b5f67ffffffffffffffff82111561031357610312610281565b5b61031c82610271565b9050602081019050919050565b828183375f83830152505050565b5f610349610344846102f9565b6102df565b9050828152602081018484840111156103655761036461026d565b5b610370848285610329565b509392505050565b5f82601f83011261038c5761038b610269565b5b813561039c848260208601610337565b91505092915050565b5f602082840312156103ba576103b9610261565b5b5f82013567ffffffffffffffff8111156103d7576103d6610265565b5b6103e384828501610378565b91505092915050565b5f819050919050565b5f61040f61040a61040584610200565b6103ec565b610200565b9050919050565b5f610420826103f5565b9050919050565b5f61043182610416565b9050919050565b61044181610427565b82525050565b5f60208201905061045a5f830184610438565b92915050565b5f82825260208201905092915050565b7f506c617946693a20426574206d7573742062652067726561746572207468616e5f8201527f2030000000000000000000000000000000000000000000000000000000000000602082015250565b5f6104ca602283610460565b91506104d582610470565b604082019050919050565b5f6020820190508181035f8301526104f7816104be565b9050919050565b5f81519050919050565b5f5b8381101561052557808201518184015260208101905061050a565b5f8484015250505050565b5f61053a826104fe565b6105448185610460565b9350610554818560208601610508565b61055d81610271565b840191505092915050565b5f819050919050565b61057a81610568565b82525050565b5f6040820190508181035f8301526105988185610530565b90506105a76020830184610571565b939250505056fea2646970667358221220f92c7bbece54f98cc07e963fec89533d4cb746adb004ab585dc0b0764d02759c64736f6c63430008140033",
  "linkReferences": {},
  "deployedLinkReferences": {},
  "immutableReferences": {},
  "inputSourceName": "project/contracts/PlayFiGames.sol",
  "buildInfoId": "solc-0_8_20-f50e7b734e5217d82884aaab15d40e6014da97c3"
}